:10000000020C4802034BE86480F8E933E8336011DE
:100010000460F0ED33EC337009E8FCE9FDEAFEEB37
:10002000FF220460DED3EB9FEA9EE99DE8C2E78CE5
:10003000F0C2F795F0400CE8CCF8E9CDF9EACEFA39
:10004000EBCFFB12031685D0F05804700320D5B314
:10005000E80470075002B2D502035592D5EC046053
:10006000F7E4CCC0E0C398F8603B94186008400DFA
:10007000D0E0FB02032DE4FBFAC9FC8028E830E461
:1000800006E4C9FBE4CAFCE830E305E4C9CACBFCDA
:10009000E854076010F8C3E913F9EA13FAEB13FB0D
:1000A000EC13FCD8F130F52FC3E49CFCEF9BFFEE82
:1000B0009AFEED99FDD0E0FBEF4E4D4C701222DB25
:1000C00003020352EC2CFCEF33FFEE33FEED33FD65
:1000D000ED30E7EB02032DEF2BFFEE3AFEED39FD9D
:1000E000D0E0FB50130BBB0003020355ED13FDEEF4
:1000F00013FEEF13FFEC13FC02032DEC4D6011E82F
:10010000497017ED33EC3304600DE4FCFFFEFD2273
:10011000E933E8330470F802034B12031658046005
:1001200009E4CC24815006285009020355284003D5
:10013000020352C0E0EB4A7044B98006D0E0FB02F3
:100140000341EF4E701CBD8008EBFFEAFEE9FD8025
:10015000EBE98DF0A4FEE5F00201E4E9CDF9EAFE59
:10016000EBFFEF89F0A4FCE5F0CE89F0A42EFFE4CC
:1001700035F0CD89F0A42DFEE435F08067EF4E70A8
:1001800005BD80D780C3EF8BF0A4ACF0EE8BF0A45C
:100190002CFCE435F0F8EF8AF0A42CE5F038FCE410
:1001A00033CB8DF0A42CFCE5F03BF8EE8AF0A42CC8
:1001B000FCE5F038F8E433CF89F0A42CFCE5F03806
:1001C000CF3400CE89F0A42FFFE5F03EFEE433C922
:1001D0008DF0A42EFEE5F039CD8AF0A42FFFE5F0D6
:1001E0003EFEE43DFD33D0E0FB50070BBB000F02A9
:1001F0000355EC2CFCEF33FFEE33FEED33FD020331
:100200002D020355EC5D046005E8590470030203F8
:100210004B120316580460F6EC4860F2EC7004FDD3
:10022000FEFF22C860DB2481C85009C398600250D9
:10023000060203529850CAF582E9294B4A7005AB71
:100240008202034175F0007C1A7880C3EF9BEE9A1E
:10025000ED99400DC3EF9BFFEE9AFEED99FDE8424C
:10026000F0DC23ACF0D0E0FFD0E0FED0E0FDAB82CC
:1002700020E7101BEB60BAEC2CFCEF33FFEE33FEF3
:10028000ED33FD02032DE803F830E705C0F075F00B
:1002900000EF2FFFEE33FEED33FD40B830E7C280B4
:1002A000AA75F020800E75F010800575F0087D00AD
:1002B0007E007F003392D530D503120509EC334020
:1002C00010EF33FFEE33FEED33FDEC33FCD5F0EDF4
:1002D00022E5F0247EA2D513CC92E7CDCEFF22ED0D
:1002E000D2E7CD33EC3392D524814006E4FFFEFD06
:1002F000FC22FCE4CFCECDCC24E0501174FF80ED85
:10030000C3CC13CCCD13CDCE13CECF13CF0470F00E
:1003100030D5DE020509E9D2E7C933E833F892D5D2
:10032000EDD2E7CD33EC33FC5002B2D522EC30E70E
:10033000100FBF000C0EBE00080DBD00040BEB60DB
:1003400014A2D5EB13FCED92E7FD2274FFFCFDFE39
:10035000FF22E480F8A2D574FF13FC7D80E480EFD7
:10036000E709F608DFFA8046E709F208DFFA803E7F
:1003700088828C83E709F0A3DFFA8032E309F6086C
:10038000DFFA8078E309F208DFFA807088828C83D4
:10039000E309F0A3DFFA806489828A83E0A3F60888
:1003A000DFFA805889828A83E0A3F208DFFA804C62
:1003B00080D280FA80C680D4806980F28033801039
:1003C00080A680EA809A80A880DA80E280CA8033A2
:1003D00089828A83ECFAE493A3C8C582C8CCC5831A
:1003E000CCF0A3C8C582C8CCC583CCDFE9DEE780EA
:1003F0000D89828A83E493A3F608DFF9ECFAA9F069
:10040000EDFB2289828A83ECFAE0A3C8C582C8CCBE
:10041000C583CCF0A3C8C582C8CCC583CCDFEADED7
:10042000E880DB89828A83E493A3F208DFF980CC39
:1004300088F0EF60010E4E60C388F0ED2402B40432
:100440000050B9F582EB2402B4040050AF232345D9
:1004500082239003B073BB010CE58229F582E5830A
:100460003AF583E0225006E92582F8E622BBFE0633
:10047000E92582F8E222E58229F582E5833AF583CF
:10048000E49322EF8DF0A4A8F0CF8CF0A428CE8DB9
:10049000F0A42EFE22BC000BBE0029EF8DF084FFDD
:1004A000ADF022E4CCF875F008EF2FFFEE33FEEC50
:1004B00033FCEE9DEC984005FCEE9DFE0FD5F0E977
:1004C000E4CEFD22EDF8F5F0EE8420D21CFEADF076
:1004D00075F008EF2FFFED33FD4007985006D5F07B
:1004E000F222C398FD0FD5F0EA22BB010A89828A65
:1004F00083F0E5F0A3F0225006F709A7F01922BB1C
:10050000FE06F3E5F009F31922C3E49FFFE49EFE23
:10051000E49DFDE49CFC22E8600FECC313FCED13AA
:10052000FDEE13FEEF13FFD8F122E8600FEFC333A7
:10053000FFEE33FEED33FDEC33FCD8F1228B0C8A59
:100540000D890E78127C007D007BFF7A1679817E02
:10055000007F06120430E4F51BF51AF519F518F5BD
:100560001C120B247F507E00120BF7120BB0EF30E1
:10057000E7147F2C7E01120BF7051CC3E51C946465
:100580007480948040E5120C667F71120AFD120C93
:1005900092E4F51CC3E51C940674809480502112EB
:1005A0000B707412251CF8A607C3E51C9405748013
:1005B00094805005120C7F8003120C86051C80D499
:1005C000120C6FE4F51BF51AF519F518FCFDFEE5A4
:1005D0001B2513F51BEE351AF51AED3519F519EC37
:1005E0003518F518AF1BAE1AAD19FC780812052A9C
:1005F000A804A905AA06AB07E4FCFDFEEB2514F54B
:100600001BEE3AF51AED39F519EC38F518AF1BAEBB
:100610001AAD19FC780812052AA804A905AA06AB88
:1006200007E4FCFDFEEB2515FFEE3AFEED39FDEC8F
:1006300038FC78041205178F1B8E1A8D198C18E45C
:100640001202A1E4FBFA797A78441200FBE4FBFA87
:1006500079807844120204E4FBFA7980784412022B
:1006600004E4FBFA792078411200FB1202DFAB0FA1
:10067000AA10A911EE8FF01204EAE4F51BF51AF5A1
:1006800019F518E515540FFEE516FFEE3395E08FCA
:100690001B8E1AF519F518AF1BFDAC18780812055A
:1006A0002AA804A905AA06AB07EB4517F51BEAF52E
:1006B0001AE9F519E8F518AF1BE41202A17B007ADC
:1006C00040799C78461200FBE4FBFA79807844126A
:1006D0000204E4FBFA798078441202047B007A4039
:1006E000799C78C512000A1202DFAB0CAA0DA90E84
:1006F000EE8FF00204EAE4FDFC7FAEFE120AAFE4E6
:10070000FDFC7F40FE120AC0E4FDFC7FB0FE120A31
:10071000C0E4FDFC7F81FE120AC0E4FDFC7FFFFE09
:10072000120AC0E4FDFC7FA1FE120AC0E4FDFC7FBA
:10073000A6FE120AC0E4FDFC7FA8FE120AC0E4FD7A
:10074000FC7F3FFE120AC0E4FDFC7FC8FE120AC017
:10075000E4FDFC7FD3FE120AC0E4FDFCFFFE120A9A
:10076000C0E4FDFC7FD5FE120AC0E4FDFC7F80FEE4
:10077000120AC0E4FDFC7FD8FE120AC0E4FDFC7F33
:1007800005FE120AC0E4FDFC7FD9FE120AC0E4FD9A
:10079000FC7FF1FE120AC0E4FDFC7FDAFE120AC003
:1007A000E4FDFC7F12FE120AC0E4FDFC7FDBFE12BA
:1007B0000AC0E4FDFC7F30FE120AC0E4FDFC7F8D20
:1007C000FE120AC0E4FDFC7F14FE120AC0E4FDFC28
:1007D0007FAFFE020AC08F158D16E4F519F9EB24E0
:1007E000E0F519D3EF947F748094804007E4F51509
:1007F00005160516E5186410707AAD16AF15120AC5
:10080000D1E4F9E9C3940874809480502975F010FC
:10081000E519A429F582E435F0F583E58224BFF5D6
:1008200082E583340EF583E493FF7E007D017C0036
:10083000120AC00980CDE51604FDAF15120AD1E4F5
:10084000F9E9C3940874809480506575F010E51937
:10085000A429F582E435F0F583E58224C7F582E525
:1008600083340EF583E493FF7E007D017C00120A41
:10087000C00980CDAD16AF15120AD1E4F9E9C394D1
:100880000674809480502975F006E519A42497F524
:1008900082E5F0340CF583E58229F582E43583F5B1
:1008A00083E493FF7E007D017C00120AC00980CDA5
:1008B0002275080075090CE4F50AF50B1206F6120C
:1008C0000A427BFF7A16796F7511107D01E4FF12E1
:1008D00009FE7BFF7A1679757511107D017F621212
:1008E00009FE7BFF7A1679777511107D05E4FF12FA
:1008F00009FE7BFF7A16797D7511107D057F461202
:1009000009FE120B93750F0075100075110A7B001C
:100910007A00790812053D7F327E00120BF7AE088F
:10092000AF097C007D64120495AA06AB077510021E
:100930007511107D017F301209847BFF7A16797F53
:100940007511107D017F461209FEAE08AF097C00CB
:100950007D64120495AA04AB057510027511107D13
:10096000017F4F120984AE0AAF0B7C007D64120434
:1009700095AA06AB077510027511107D057F301220
:10098000098480818F0C8D0D8A0E8B0FE4F514F590
:1009900012E512C395105065C3E510951214FD7F42
:1009A0000A120BC9AC0EAD0FCFCDCFCECCCE1204F8
:1009B000957C007D0A1204958D13E5147023E510D3
:1009C00014FFE512C39F5019E5137012E511C3130C
:1009D0008512F0A4250CFF8511187B208016751454
:1009E00001E511C3138512F0A4250CFFE513243093
:1009F000FB851118AD0D1207D605128094228F0CBD
:100A00008D0D8B0E8A0F8910E4F512AB0EAA0FA97B
:100A100010851282758300120456FB60248511181C
:100A2000AD0DAF0C1207D67408250CF50CD39478D5
:100A3000748094804007E4F50C050D050D051280C7
:100A4000CA22E4F9E9FF7E00C394087480948050C0
:100A500022120AA5E4F50CC3E50C948074809480FE
:100A6000500E7D017C00E4FFFE120AC0050C80E7F9
:100A70000980D122AC07120C5D7F78C290E4FEEEB3
:100A8000C3940874809480501BAD07530580ED64B7
:100A9000807004D2918002C291EF25E0FFD290C213
:100AA000900E80DB22EF24B0FFEE33FEE4FDFC125B
:100AB0000AC0E4FDFCFFFE120AC07F10E4FDFCFE4C
:100AC000AB07AA06ED4C6003020C3AAF03120C2CE4
:100AD00022A907ED24B0FFE433FEE4FDFC120AC0B6
:100AE000E954F0C4540F7E004410FFE4FDFC120AE8
:100AF000C0E9540FFF7E00E4FDFC020AC0E4FEEEF4
:100B0000C39408748094805018EF548064807004FB
:100B1000D2928002C292D293C293EF25E0FF0E8060
:100B2000DEC29222120C667F70120AFD120C927FB6
:100B3000AC120AFD120C927F33120AFD120C92E4E1
:100B4000FF120AFD120C92020C6F120C667F7012DB
:100B50000AFD120C927FE1120AFD120C927F08121C
:100B60000AFD120C92E4FF120AFD120C92020C6FA5
:100B7000E4FFC293D292FEEEC39408748094805036
:100B800011EF25E0FFD293309203430701C2930E89
:100B900080E522120C8D7F2D800B120C0BEF700F55
:100BA000120BE17F0F7E00120BF7120B4A80EB2233
:100BB000120C667F71120AFD120C92120B708F1DBF
:100BC000120C86120C6FAF1D228F15A9057F017EB6
:100BD00000AD0119ED6009AD157C0012048380F1B0
:100BE00022120C667F70120AFD120C927FBA120A52
:100BF000FD120C92020C6FAD07AC06ED1DAE047039
:100C0000011C4E6005120C5480F122E4FF120BB05F
:100C1000EF540864087F0070027F0122120A7B12E1
:100C20000C27AF04120A7BD290C29022120A7412CF
:100C30000C27E4FF120C1C020C78120A74120C2709
:100C40007F40120C1C020C78787FE4F6D8FD758189
:100C50001D0208B17F027EEFDEFEDFFC22D290D2C1
:100C600091C291C29022D292D293C292C29322D2C6
:100C700093C292D292C29322D290C291D29122C2B6
:100C800092D293C29322D292D293C29322D292D280
:100C90009322D293C29322000000000000000000C3
:100CA0002F000000000700070000147F147F1400CD
:100CB000242A7F2A12006264081323003649552231
:100CC0005000000503000000001C2241000000410C
:100CD000221C000014083E08140008083E08080002
:100CE0000000A0600000080808080800006060001C
:100CF00000002010080402003E5149453E00004219
:100D00007F4000004261514946002141454B31007E
:100D10001814127F10002745454539003C4A4949BF
:100D2000300001710905030036494949360006497A
:100D300049291E000036360000000056360000002B
:100D40000814224100001414141414000041221449
:100D50000800020151090600324959513E007C1237
:100D600011127C007F49494936003E414141220031
:100D70007F4141221C007F49494941007F090909FF
:100D800001003E4149497A007F0808087F00004180
:100D90007F4100002040413F01007F0814224100B4
:100DA0007F40404040007F020C027F007F0408101B
:100DB0007F003E4141413E007F09090906003E4156
:100DC00051215E007F0919294600464949493100F1
:100DD00001017F0101003F4040403F001F204020B3
:100DE0001F003F4038403F006314081463000708A9
:100DF00070080700615149454300007F41410000F0
:100E0000552A552A55000041417F00000402010285
:100E10000400404040404000000102040000205413
:100E2000545478007F4844443800384444442000F7
:100E3000384444487F00385454541800087E09014F
:100E4000020018A4A4A47C007F08040478000044D5
:100E50007D4000004080847D00007F102844000019
:100E600000417F4000007C04180478007C080404E2
:100E70007800384444443800FC2424241800182402
:100E80002418FC007C080404080048545454200032
:100E9000043F444020003C4040207C001C20402077
:100EA0001C003C4030403C004428102844001CA05A
:100EB000A0A07C004464544C441414141414140072
:100EC0000000000000000000000000000000000022
:100ED0000000F800000000000000333000000000B7
:100EE000100C06100C06000000000000000000407E
:100EF000C07840C0784000043F04043F0404000070
:100F00007088FC08300000001820FF211E0000F04F
:100F100008F000E018000000211C031E211E000044
:100F2000F00888700000001E2123241927211010CA
:100F3000160E00000000000000000000000000008D
:100F40000000E01804020000000007182040000024
:100F5000020418E0000000004020180700000040D4
:100F60004080F0804040000202010F0102020000B8
:100F70000000F0000000000101011F01010100005C
:100F80000000000000000080B070000000000000C1
:100F9000000000000000000001010101010101004A
:100FA00000000000000000003030000000000000E1
:100FB00000000080601804006018060100000000B6
:100FC000E010080810E000000F102020100F0000B3
:100FD0001010F8000000000020203F20200000003A
:100FE0007008080888700000302824222130000092
:100FF000300888884830000018202020110E00009A
:1010000000C02010F8000000070424243F24000042
:10101000F80888880808000019212020110E000017
:10102000E0108888180000000F112020110E000029
:10103000380808C83808000000003F000000000021
:1010400070880808887000001C222121221C0000E2
:10105000E010080810E0000000312222110F00000B
:101060000000C0C0000000000000303000000000A0
:101070000000800000000000008060000000000010
:1010800000804020100800000102040810200040E9
:1010900040404040404000040404040404040000B4
:1010A0000810204080000000201008040201000009
:1010B0007048080808F0000000003036010000C049
:1010C00030C828E810E0000718272423140B00007C
:1010D00000C038E0000000203C230202273820082E
:1010E000F8888888700000203F202020110E00C062
:1010F00030080808083800071820202010080008C9
:10110000F808080810E000203F202020100F0008F9
:10111000F88888E8081000203F20202320180008C5
:10112000F88888E8081000203F200003000000C075
:101130003008080838000007182020221E02000886
:10114000F808000008F808203F210101213F200095
:101150000808F8080800000020203F2020000000B8
:10116000000808F8080800C08080807F00000008A0
:10117000F888C028180800203F20012638200008E1
:10118000F8080000000000203F2020202030000848
:10119000F8F800F8F80800203F003F003F20000862
:1011A000F830C00008F808203F200007183F00E092
:1011B0001008080810E0000F10202020100F000871
:1011C000F808080808F000203F210101010000E0B4
:1011D0001008080810E0000F18242438504F0008A9
:1011E000F8888888887000203F2000030C30200099
:1011F000708808080838000038202121221C0018B7
:101200000808F8080818000000203F200000000827
:10121000F808000008F808001F202020201F000800
:1012200078880000C83808000007380E010000F870
:101230000800F80008F800033C0700073C0300081A
:101240001868808068180820302C03032C30200890
:1012500038C800C83808000000203F2000000010F7
:10126000080808C838080020382621202018000067
:101270000000FE020202000000007F40404000002B
:101280000C30C000000000000000010638C0000063
:10129000020202FE000000004040407F000000000B
:1012A0000004020202040000000000000000000030
:1012B000000000000000008080808080808080002E
:1012C0000202040000000000000000000000000016
:1012D000008080808000000019242222223F200804
:1012E000F8008080000000003F112020110E000057
:1012F00000008080800000000E11202020110000DE
:101300000000808088F800000E112020103F20008F
:1013100000808080800000001F2222222213000013
:101320008080F0888888180020203F20200000005E
:1013300000808080808000006B949494936000080B
:10134000F8008080800000203F210000203F200026
:10135000809898000000000020203F20200000001E
:101360000000809898000000C08080807F00000806
:10137000F8000080808000203F24022D30200000F3
:101380000808F8000000000020203F202000008016
:1013900080808080808000203F20003F20003F80B0
:1013A00080008080800000203F210000203F20003E
:1013B00000808080800000001F202020201F0080EF
:1013C0008000808000000080FFA12020110E00001E
:1013D00000008080808000000E112020A0FF80800F
:1013E0008080008080800020203F212000010000BC
:1013F0000080808080800000332424242419000091
:101400008080E0808000000000001F20200000801D
:1014100080000000808000001F202020103F2080DE
:101420008080000080808000010E3008060100806E
:10143000800080008080800F300C030C300F000093
:10144000808000808080000020312E0E31200080BE
:101450008080000080808080818E701806010000EE
:10146000808080808080000021302C22213000008C
:10147000000000807C020200000000003F404000AD
:10148000000000FF00000000000000FF000000005E
:1014900002027C800000000040403F00000000008D
:1014A0000601010202040400000000000000000028
:1014B00000F010101010FF10101010F000000000CD
:1014C000000000000000000000000000000000001C
:1014D000000F04040404FF040404040F00000000CF
:1014E00000000000000000000000000000000040BC
:1014F00040405F555555755555555F40404000007B
:1015000000000000000000000000000000000000DB
:1015100040200F094989790909090F20400000007E
:1015200000000000000000000000000000000000BB
:10153000FE02424ACA4A4ACA4A4A4202FE00000021
:10154000000000000000000000000000000000009B
:10155000FF40504C4340404F50505C40FF00000063
:10156000000000000000000000000000000000007B
:1015700000F888888888FF88888888F8000000003C
:10158000000000000000000000000000000000005B
:10159000001F080808087F888888889F80F000005E
:1015A00000000000000000000000000000000080BB
:1015B000828282828282E2A2928A86828080000077
:1015C000000000000000000000000000000000001B
:1015D0000000000040807F000000000000000000CC
:1015E00000000000000000000000000000000024D7
:1015F00024A4FEA3220022CC0000FF000000000073
:1016000000000000000000000000000000000008D2
:101610000601FF00010404040404FF0202020000AA
:1016200000000000000000000000000000000010AA
:101630001010FF109008888888FF888888080000AC
:101640000000000000000000000000000000000496
:1016500044827F01808040432C1028468180000016
:101660000000000000000000000000000000005426
:10167000454D503A00430048554D493A0025002E4B
:071680000000000000000063
:00000001FF
