C51 COMPILER V9.60.0.0   MAIN                                                              08/20/2022 23:17:41 PAGE 1   


C51 COMPILER V9.60.0.0, COMPILATION OF MODULE MAIN
OBJECT MODULE PLACED IN .\Objects\main.obj
COMPILER INVOKED BY: C:\Keil_v5\C51\BIN\C51.EXE USER\main.c OMF2 OPTIMIZE(8,SPEED) BROWSE INCDIR(.\USER;.\DRIVE\INCLUDE;
                    -.\DRIVE\SOURCE;.\MCS51-CORE) DEBUG PRINT(.\Listings\main.lst) TABS(2) OBJECT(.\Objects\main.obj)

line level    source

   1          /**
   2           * @file main.c
   3           * @author WLS
   4           * @brief STC89C52MCU 读取AHT10温湿度传感器数据 在0.96 I2C OLED上显示
   5           * 
   6           * @version 0.1
   7           * @date 2022-08-20
   8           * 
   9           * @copyright Copyright (c) 2022
  10           * 
  11           */
  12          #include "reg52.h"
  13          #include "oled.h"
  14          #include "delay.h"
  15          #include "AHT10.h"
  16          
  17          
  18          /**
  19           * @brief 主函数
  20           * 
  21           */
  22          void main(){
  23   1        
  24   1      #define TEMP_Line   1  //温度显示的行
  25   1      #define TEMP_Row  0  //tmep字符的列数
  26   1      
  27   1      #define HUMI_Line   5  //湿度显示的行
  28   1      #define HUMI_Row  0  //湿度字符的列数
  29   1      
  30   1        unsigned int temp_int=12,humi_int=0;
  31   1        OLED_Init();//初始化OLED  
  32   1        OLED_Clear();//清屏
  33   1        //-----------AHT10-温度temp显示------------------
  34   1        OLED_ShowString(TEMP_Row,TEMP_Line,"TEMP:",16);//0列 3行  
  35   1        OLED_ShowString(98,TEMP_Line,"C",16);//0列 3行
  36   1        //-----------AHT10-温度temp显示------------------
  37   1      
  38   1        //-----------AHT10-湿度humi显示------------------
  39   1        OLED_ShowString(HUMI_Row,HUMI_Line,"HUMI:",16);//0列 3行  
  40   1        OLED_ShowString(70,HUMI_Line,"%",16);//70列 5行
  41   1        //-----------AHT10-湿度humi显示------------------
  42   1      
  43   1        AHT10_Init();// 温湿度传感器 AHT10初始化
  44   1        
  45   1      
  46   1        
  47   1        while(1){ //------主循环----
  48   2            
  49   2          AHT10_Read_Data(&temp_int,&humi_int);
  50   2          Delay_ms(50);   //快速测量可能会引起传感器升温，此处降低测量速率
  51   2          
  52   2          //-----------AHT10-温度temp显示------------------
  53   2          OLED_ShowNum(48,TEMP_Line,temp_int/100,2,16);// 41列 3行  显示温度整数部分
  54   2          OLED_ShowString(70,TEMP_Line,".",16);//0列 3行 显示小数点
C51 COMPILER V9.60.0.0   MAIN                                                              08/20/2022 23:17:41 PAGE 2   

  55   2          OLED_ShowNum(79,TEMP_Line,temp_int%100,2,16);// 41列 3行  显示温度小数部分
  56   2          //-----------AHT10-温度显示------------------
  57   2      
  58   2        //--***********************************************************************--
  59   2      
  60   2          //-----------AHT10-湿度humi显示------------------
  61   2          OLED_ShowNum(48,HUMI_Line,humi_int/100,2,16);// 41列 3行  显示温度整数部分
  62   2          //-----------AHT10-湿度humi显示------------------
  63   2      
  64   2      
  65   2      
  66   2          //Delay_ms(1500);
  67   2          
  68   2        }
  69   1      }


MODULE INFORMATION:   STATIC OVERLAYABLE
   CODE SIZE        =    211    ----
   CONSTANT SIZE    =     18    ----
   XDATA SIZE       =   ----    ----
   PDATA SIZE       =   ----    ----
   DATA SIZE        =   ----       4
   IDATA SIZE       =   ----    ----
   BIT SIZE         =   ----    ----
   EDATA SIZE       =   ----    ----
   HDATA SIZE       =   ----    ----
   XDATA CONST SIZE =   ----    ----
   FAR CONST SIZE   =   ----    ----
END OF MODULE INFORMATION.


C51 COMPILATION COMPLETE.  0 WARNING(S),  0 ERROR(S)
