LX51 LINKER/LOCATER V4.66.97.0                                                          08/20/2022  23:17:42  PAGE 1


LX51 LINKER/LOCATER V4.66.97.0, INVOKED BY:
C:\KEIL_V5\C51\BIN\LX51.EXE .\Objects\main.obj, .\Objects\delay.obj, .\Objects\oled.obj, .\Objects\AHT10.obj, .\Objects\
>> ATH10IIC.obj TO .\Objects\MCUdesign PRINT (.\Listings\MCUdesign.map) DISABLEWARNING (16) REMOVEUNUSED


CPU MODE:     8051 MODE
MEMORY MODEL: SMALL WITH FLOATING POINT ARITHMETIC


INPUT MODULES INCLUDED:
  .\Objects\main.obj (MAIN)
         COMMENT TYPE 0: C51 V9.60.0.0
  .\Objects\delay.obj (DELAY)
         COMMENT TYPE 0: C51 V9.60.0.0
  .\Objects\oled.obj (OLED)
         COMMENT TYPE 0: C51 V9.60.0.0
  .\Objects\AHT10.obj (AHT10)
         COMMENT TYPE 0: C51 V9.60.0.0
  .\Objects\ATH10IIC.obj (ATH10IIC)
         COMMENT TYPE 0: C51 V9.60.0.0
  C:\KEIL_V5\C51\LIB\C51FPS.LIB (?C?FPADD)
         COMMENT TYPE 1: A51 / ASM51 Assembler
  C:\KEIL_V5\C51\LIB\C51FPS.LIB (?C?FPMUL)
         COMMENT TYPE 1: A51 / ASM51 Assembler
  C:\KEIL_V5\C51\LIB\C51FPS.LIB (?C?FPDIV)
         COMMENT TYPE 1: A51 / ASM51 Assembler
  C:\KEIL_V5\C51\LIB\C51FPS.LIB (?C?FCAST)
         COMMENT TYPE 1: A51 / ASM51 Assembler
  C:\KEIL_V5\C51\LIB\C51FPS.LIB (?C?CASTF)
         COMMENT TYPE 1: A51 / ASM51 Assembler
  C:\KEIL_V5\C51\LIB\C51FPS.LIB (?C?FPGETOPN)
         COMMENT TYPE 1: A51 / ASM51 Assembler
  C:\KEIL_V5\C51\LIB\C51S.LIB (?C_STARTUP)
         COMMENT TYPE 1: A51 / ASM51 Assembler
  C:\KEIL_V5\C51\LIB\C51S.LIB (?C?COPY)
         COMMENT TYPE 1: A51 / ASM51 Assembler
  C:\KEIL_V5\C51\LIB\C51S.LIB (?C?CLDOPTR)
         COMMENT TYPE 1: A51 / ASM51 Assembler
  C:\KEIL_V5\C51\LIB\C51S.LIB (?C?IMUL)
         COMMENT TYPE 1: A51 / ASM51 Assembler
  C:\KEIL_V5\C51\LIB\C51S.LIB (?C?UIDIV)
         COMMENT TYPE 1: A51 / ASM51 Assembler
  C:\KEIL_V5\C51\LIB\C51S.LIB (?C?ISTPTR)
         COMMENT TYPE 1: A51 / ASM51 Assembler
  C:\KEIL_V5\C51\LIB\C51S.LIB (?C?LNEG)
         COMMENT TYPE 1: A51 / ASM51 Assembler
  C:\KEIL_V5\C51\LIB\C51S.LIB (?C?ULSHR)
         COMMENT TYPE 1: A51 / ASM51 Assembler
  C:\KEIL_V5\C51\LIB\C51S.LIB (?C?LSHL)
         COMMENT TYPE 1: A51 / ASM51 Assembler


ACTIVE MEMORY CLASSES OF MODULE:  .\Objects\MCUdesign (MAIN)

BASE        START       END         USED      MEMORY CLASS
==========================================================
C:000000H   C:000000H   C:00FFFFH   000C97H   CODE
I:000000H   I:000000H   I:00007FH   00001EH   DATA
C:000000H   C:000000H   C:00FFFFH   0009F0H   CONST
I:000000H   I:000000H   I:0000FFH   000001H   IDATA


MEMORY MAP OF MODULE:  .\Objects\MCUdesign (MAIN)


START     STOP      LENGTH    ALIGN  RELOC    MEMORY CLASS   SEGMENT NAME
LX51 LINKER/LOCATER V4.66.97.0                                                        08/20/2022  23:17:42  PAGE 2


=========================================================================

* * * * * * * * * * *   D A T A   M E M O R Y   * * * * * * * * * * * * *
000000H   000007H   000008H   ---    AT..     DATA           "REG BANK 0"
000008H   00001DH   000016H   BYTE   UNIT     DATA           _DATA_GROUP_
00001EH   00001EH   000001H   BYTE   UNIT     IDATA          ?STACK

* * * * * * * * * * *   C O D E   M E M O R Y   * * * * * * * * * * * * *
000000H   000002H   000003H   ---    OFFS..   CODE           ?CO??C_STARTUP?0
000003H   00053CH   00053AH   BYTE   UNIT     CODE           ?C?LIB_CODE
00053DH   0006F5H   0001B9H   BYTE   UNIT     CODE           ?PR?_AHT10_READ_DATA?AHT10
0006F6H   0007D5H   0000E0H   BYTE   UNIT     CODE           ?PR?OLED_INIT?OLED
0007D6H   0008B0H   0000DBH   BYTE   UNIT     CODE           ?PR?_OLED_SHOWCHAR?OLED
0008B1H   000983H   0000D3H   BYTE   UNIT     CODE           ?PR?MAIN?MAIN
000984H   0009FDH   00007AH   BYTE   UNIT     CODE           ?PR?_OLED_SHOWNUM?OLED
0009FEH   000A41H   000044H   BYTE   UNIT     CODE           ?PR?_OLED_SHOWSTRING?OLED
000A42H   000A73H   000032H   BYTE   UNIT     CODE           ?PR?OLED_CLEAR?OLED
000A74H   000AA4H   000031H   BYTE   UNIT     CODE           ?PR?_WRITE_IIC_BYTE?OLED
000AA5H   000AD0H   00002CH   BYTE   UNIT     CODE           ?PR?_OLED_WR_BYTE?OLED
000AD1H   000AFCH   00002CH   BYTE   UNIT     CODE           ?PR?_OLED_SET_POS?OLED
000AFDH   000B23H   000027H   BYTE   UNIT     CODE           ?PR?_IIC_WRITE_BYTE?ATH10IIC
000B24H   000B49H   000026H   BYTE   UNIT     CODE           ?PR?AHT10_MEA?AHT10
000B4AH   000B6FH   000026H   BYTE   UNIT     CODE           ?PR?AHT10INIT?AHT10
000B70H   000B92H   000023H   BYTE   UNIT     CODE           ?PR?IIC_READ_BYTE?ATH10IIC
000B93H   000BAFH   00001DH   BYTE   UNIT     CODE           ?PR?AHT10_INIT?AHT10
000BB0H   000BC8H   000019H   BYTE   UNIT     CODE           ?PR?AHT10_STATUS?AHT10
000BC9H   000BE0H   000018H   BYTE   UNIT     CODE           ?PR?_OLED_POW?OLED
000BE1H   000BF6H   000016H   BYTE   UNIT     CODE           ?PR?AHT10_RST?AHT10
000BF7H   000C0AH   000014H   BYTE   UNIT     CODE           ?PR?_DELAY_MS?DELAY
000C0BH   000C1BH   000011H   BYTE   UNIT     CODE           ?PR?AHT10_CALEN?AHT10
000C1CH   000C2BH   000010H   BYTE   UNIT     CODE           ?PR?IIC_WAIT_ACK?OLED
000C2CH   000C39H   00000EH   BYTE   UNIT     CODE           ?PR?_WRITE_IIC_COMMAND?OLED
000C3AH   000C47H   00000EH   BYTE   UNIT     CODE           ?PR?_WRITE_IIC_DATA?OLED
000C48H   000C53H   00000CH   BYTE   UNIT     CODE           ?C_C51STARTUP
000C54H   000C5CH   000009H   BYTE   UNIT     CODE           ?PR?DELAY1MS?DELAY
000C5DH   000C65H   000009H   BYTE   UNIT     CODE           ?PR?IIC_START?OLED
000C66H   000C6EH   000009H   BYTE   UNIT     CODE           ?PR?IIC_START?ATH10IIC
000C6FH   000C77H   000009H   BYTE   UNIT     CODE           ?PR?IIC_STOP?ATH10IIC
000C78H   000C7EH   000007H   BYTE   UNIT     CODE           ?PR?IIC_STOP?OLED
000C7FH   000C85H   000007H   BYTE   UNIT     CODE           ?PR?IIC_ACK?ATH10IIC
000C86H   000C8CH   000007H   BYTE   UNIT     CODE           ?PR?IIC_NACK?ATH10IIC
000C8DH   000C91H   000005H   BYTE   UNIT     CODE           ?PR?IIC_INIT?ATH10IIC
000C92H   000C96H   000005H   BYTE   UNIT     CODE           ?PR?IIC_GET_ACK?ATH10IIC
000C97H   00166EH   0009D8H   BYTE   UNIT     CONST          ?CO?OLED
00166FH   001680H   000012H   BYTE   UNIT     CONST          ?CO?MAIN
001681H   001686H   000006H   BYTE   UNIT     CONST          ?CO?AHT10

* * * * * * * * *   R E M O V E D     S E G M E N T S   * * * * * * * *
   *DEL*:           00001AH   BYTE   UNIT     CODE           ?PR?_DELAY_MS?OLED
   *DEL*:           000035H   BYTE   UNIT     CODE           ?PR?_FILL_PICTURE?OLED
   *DEL*:           000002H   BYTE   UNIT     DATA           ?DT?_FILL_PICTURE?OLED
   *DEL*:           00001EH   BYTE   UNIT     CODE           ?PR?_DELAY_50MS?OLED
   *DEL*:           00001AH   BYTE   UNIT     CODE           ?PR?_DELAY_1MS?OLED
   *DEL*:           000017H   BYTE   UNIT     CODE           ?PR?OLED_DISPLAY_ON?OLED
   *DEL*:           000011H   BYTE   UNIT     CODE           ?PR?OLED_DISPLAY_OFF?OLED
   *DEL*:           000033H   BYTE   UNIT     CODE           ?PR?OLED_ON?OLED
   *DEL*:           000001H   BYTE   UNIT     DATA           ?DT?OLED_ON?OLED
   *DEL*:           000084H   BYTE   UNIT     CODE           ?PR?_OLED_SHOWCHINESE?OLED
   *DEL*:           000004H   BYTE   UNIT     DATA           ?DT?_OLED_SHOWCHINESE?OLED
   *DEL*:           000069H   BYTE   UNIT     CODE           ?PR?_OLED_DRAWBMP?OLED
   *DEL*:           00000BH   BYTE   UNIT     DATA           ?DT?_OLED_DRAWBMP?OLED



OVERLAY MAP OF MODULE:   .\Objects\MCUdesign (MAIN)
LX51 LINKER/LOCATER V4.66.97.0                                                        08/20/2022  23:17:42  PAGE 3




FUNCTION/MODULE                BIT_GROUP   DATA_GROUP 
--> CALLED FUNCTION/MODULE    START  STOP  START  STOP
======================================================
?C_C51STARTUP                 ----- -----  ----- -----
  +--> MAIN/MAIN

MAIN/MAIN                     ----- -----  0008H 000BH
  +--> OLED_INIT/OLED
  +--> OLED_CLEAR/OLED
  +--> _OLED_SHOWSTRING/OLED
  +--> AHT10_INIT/AHT10
  +--> _AHT10_READ_DATA/AHT10
  +--> _DELAY_MS/DELAY
  +--> _OLED_SHOWNUM/OLED

OLED_INIT/OLED                ----- -----  ----- -----
  +--> _OLED_WR_BYTE/OLED

_OLED_WR_BYTE/OLED            ----- -----  ----- -----
  +--> _WRITE_IIC_DATA/OLED
  +--> _WRITE_IIC_COMMAND/OLED

_WRITE_IIC_DATA/OLED          ----- -----  ----- -----
  +--> _WRITE_IIC_BYTE/OLED
  +--> IIC_WAIT_ACK/OLED
  +--> IIC_STOP/OLED

_WRITE_IIC_BYTE/OLED          ----- -----  ----- -----
  +--> IIC_START/OLED

IIC_START/OLED                ----- -----  ----- -----

IIC_WAIT_ACK/OLED             ----- -----  ----- -----
  +--> _WRITE_IIC_BYTE/OLED

IIC_STOP/OLED                 ----- -----  ----- -----

_WRITE_IIC_COMMAND/OLED       ----- -----  ----- -----
  +--> _WRITE_IIC_BYTE/OLED
  +--> IIC_WAIT_ACK/OLED
  +--> IIC_STOP/OLED

OLED_CLEAR/OLED               ----- -----  000CH 000CH
  +--> _OLED_WR_BYTE/OLED

_OLED_SHOWSTRING/OLED         ----- -----  000CH 0012H
  +--> _OLED_SHOWCHAR/OLED

_OLED_SHOWCHAR/OLED           ----- -----  0015H 0019H
  +--> _OLED_SET_POS/OLED
  +--> _OLED_WR_BYTE/OLED

_OLED_SET_POS/OLED            ----- -----  ----- -----
  +--> _OLED_WR_BYTE/OLED

AHT10_INIT/AHT10              ----- -----  ----- -----
  +--> IIC_INIT/ATH10IIC
  +--> AHT10_CALEN/AHT10
  +--> AHT10_RST/AHT10
  +--> _DELAY_MS/DELAY
  +--> AHT10INIT/AHT10

IIC_INIT/ATH10IIC             ----- -----  ----- -----
LX51 LINKER/LOCATER V4.66.97.0                                                        08/20/2022  23:17:42  PAGE 4



AHT10_CALEN/AHT10             ----- -----  ----- -----
  +--> AHT10_STATUS/AHT10

AHT10_STATUS/AHT10            ----- -----  001DH 001DH
  +--> IIC_START/ATH10IIC
  +--> _IIC_WRITE_BYTE/ATH10IIC
  +--> IIC_GET_ACK/ATH10IIC
  +--> IIC_READ_BYTE/ATH10IIC
  +--> IIC_NACK/ATH10IIC
  +--> IIC_STOP/ATH10IIC

IIC_START/ATH10IIC            ----- -----  ----- -----

_IIC_WRITE_BYTE/ATH10IIC      ----- -----  ----- -----

IIC_GET_ACK/ATH10IIC          ----- -----  ----- -----

IIC_READ_BYTE/ATH10IIC        ----- -----  ----- -----

IIC_NACK/ATH10IIC             ----- -----  ----- -----

IIC_STOP/ATH10IIC             ----- -----  ----- -----

AHT10_RST/AHT10               ----- -----  ----- -----
  +--> IIC_START/ATH10IIC
  +--> _IIC_WRITE_BYTE/ATH10IIC
  +--> IIC_GET_ACK/ATH10IIC
  +--> IIC_STOP/ATH10IIC

_DELAY_MS/DELAY               ----- -----  ----- -----
  +--> DELAY1MS/DELAY

DELAY1MS/DELAY                ----- -----  ----- -----

AHT10INIT/AHT10               ----- -----  ----- -----
  +--> IIC_START/ATH10IIC
  +--> _IIC_WRITE_BYTE/ATH10IIC
  +--> IIC_GET_ACK/ATH10IIC
  +--> IIC_STOP/ATH10IIC

_AHT10_READ_DATA/AHT10        ----- -----  000CH 001CH
  +--> AHT10_MEA/AHT10
  +--> _DELAY_MS/DELAY
  +--> AHT10_STATUS/AHT10
  +--> IIC_START/ATH10IIC
  +--> _IIC_WRITE_BYTE/ATH10IIC
  +--> IIC_GET_ACK/ATH10IIC
  +--> IIC_READ_BYTE/ATH10IIC
  +--> IIC_ACK/ATH10IIC
  +--> IIC_NACK/ATH10IIC
  +--> IIC_STOP/ATH10IIC

AHT10_MEA/AHT10               ----- -----  ----- -----
  +--> IIC_START/ATH10IIC
  +--> _IIC_WRITE_BYTE/ATH10IIC
  +--> IIC_GET_ACK/ATH10IIC
  +--> IIC_STOP/ATH10IIC

IIC_ACK/ATH10IIC              ----- -----  ----- -----

_OLED_SHOWNUM/OLED            ----- -----  000CH 0014H
  +--> _OLED_POW/OLED
  +--> _OLED_SHOWCHAR/OLED

LX51 LINKER/LOCATER V4.66.97.0                                                        08/20/2022  23:17:42  PAGE 5


_OLED_POW/OLED                ----- -----  0015H 0015H



PUBLIC SYMBOLS OF MODULE:  .\Objects\MCUdesign (MAIN)


      VALUE       CLASS    TYPE      PUBLIC SYMBOL NAME
      =================================================
      0000000CH   DATA     BYTE      ?_AHT10_Read_Data?BYTE
*DEL*:00000000H   DATA     BYTE      ?_OLED_DrawBMP?BYTE
      00000015H   DATA     BYTE      ?_OLED_ShowChar?BYTE
      0000000CH   DATA     BYTE      ?_OLED_ShowNum?BYTE
      0000000CH   DATA     BYTE      ?_OLED_ShowString?BYTE
      010002DFH   CODE     ---       ?C?CASTF
      01000456H   CODE     ---       ?C?CLDOPTR
      00000000H   NUMBER   ---       ?C?CODESEG
      01000430H   CODE     ---       ?C?COPY
      010002ABH   CODE     ---       ?C?FCASTC
      010002A6H   CODE     ---       ?C?FCASTI
      010002A1H   CODE     ---       ?C?FCASTL
      0100000AH   CODE     ---       ?C?FPADD
      01000204H   CODE     ---       ?C?FPDIV
      01000316H   CODE     ---       ?C?FPGETOPN2
      010000FBH   CODE     ---       ?C?FPMUL
      0100034BH   CODE     ---       ?C?FPNANRESULT
      01000355H   CODE     ---       ?C?FPOVERFLOW
      0100032DH   CODE     ---       ?C?FPRESULT
      01000341H   CODE     ---       ?C?FPRESULT2
      01000006H   CODE     ---       ?C?FPSUB
      01000352H   CODE     ---       ?C?FPUNDERFLOW
      01000483H   CODE     ---       ?C?IMUL
      010004EAH   CODE     ---       ?C?ISTPTR
      01000509H   CODE     ---       ?C?LNEG
      0100052AH   CODE     ---       ?C?LSHL
      01000495H   CODE     ---       ?C?UIDIV
      01000517H   CODE     ---       ?C?ULSHR
      00000000H   NUMBER   ---       ?C?XDATASEG
      010008B1H   CODE     ---       ?C_START
      01000000H   CODE     ---       ?C_STARTUP
      0100053DH   CODE     ---       _AHT10_Read_Data
      01000BF7H   CODE     ---       _Delay_ms
*DEL*:00000000H   CODE     ---       _fill_picture
      01000AFDH   CODE     ---       _IIC_write_byte
*DEL*:00000000H   CODE     ---       _OLED_DrawBMP
      01000BC9H   CODE     ---       _oled_pow
      01000AD1H   CODE     ---       _OLED_Set_Pos
      010007D6H   CODE     ---       _OLED_ShowChar
*DEL*:00000000H   CODE     ---       _OLED_ShowCHinese
      01000984H   CODE     ---       _OLED_ShowNum
      010009FEH   CODE     ---       _OLED_ShowString
      01000AC0H   CODE     ---       _OLED_WR_Byte
*SFR* 000000D0H.6 DATA     BIT       AC
*SFR* 000000E0H   DATA     BYTE      ACC
      01000C0BH   CODE     ---       AHT10_CalEN
      01000B93H   CODE     ---       AHT10_Init
      01000B24H   CODE     ---       AHT10_Mea
      01000BE1H   CODE     ---       AHT10_RST
      01000BB0H   CODE     ---       AHT10_Status
      01000B4AH   CODE     ---       AHT10Init
*SFR* 000000F0H   DATA     BYTE      B
*SFR* 000000C8H.1 DATA     BIT       C_T2
*SFR* 000000C8H.0 DATA     BIT       CP_RL2
*SFR* 000000D0H.7 DATA     BIT       CY
      01000C54H   CODE     ---       Delay1ms
LX51 LINKER/LOCATER V4.66.97.0                                                        08/20/2022  23:17:42  PAGE 6


*SFR* 00000083H   DATA     BYTE      DPH
*SFR* 00000082H   DATA     BYTE      DPL
*SFR* 000000A8H.7 DATA     BIT       EA
*SFR* 000000A8H.4 DATA     BIT       ES
*SFR* 000000A8H.1 DATA     BIT       ET0
*SFR* 000000A8H.3 DATA     BIT       ET1
*SFR* 000000A8H.5 DATA     BIT       ET2
*SFR* 000000A8H.0 DATA     BIT       EX0
*SFR* 000000A8H.2 DATA     BIT       EX1
*SFR* 000000C8H.3 DATA     BIT       EXEN2
*SFR* 000000C8H.6 DATA     BIT       EXF2
*SFR* 000000D0H.5 DATA     BIT       F0
      01000C97H   CONST    ---       F6x8
      01000EBFH   CONST    ---       F8X16
      010014AFH   CONST    ---       Hzk
*SFR* 000000A8H   DATA     BYTE      IE
*SFR* 00000088H.1 DATA     BIT       IE0
*SFR* 00000088H.3 DATA     BIT       IE1
      01000C7FH   CODE     ---       IIC_ACK
      01000C92H   CODE     ---       IIC_Get_ack
      01000C8DH   CODE     ---       IIC_Init
      01000C86H   CODE     ---       IIC_NACK
      01000B70H   CODE     ---       IIC_read_byte
*SFR* 00000090H.3 DATA     BIT       IIC_SCL
*SFR* 00000090H.2 DATA     BIT       IIC_SDA
      01000C66H   CODE     ---       IIC_start
      01000C6FH   CODE     ---       IIC_stop
*SFR* 000000B0H.2 DATA     BIT       INT0
*SFR* 000000B0H.3 DATA     BIT       INT1
*SFR* 000000B8H   DATA     BYTE      IP
*SFR* 00000088H.0 DATA     BIT       IT0
*SFR* 00000088H.2 DATA     BIT       IT1
      010008B1H   CODE     ---       main
      01000A42H   CODE     ---       OLED_Clear
*DEL*:00000000H   CODE     ---       OLED_Display_Off
*DEL*:00000000H   CODE     ---       OLED_Display_On
      010006F6H   CODE     ---       OLED_Init
*DEL*:00000000H   CODE     ---       OLED_On
*SFR* 00000090H.0 DATA     BIT       OLED_SCL
*SFR* 00000090H.1 DATA     BIT       OLED_SDIN
*SFR* 000000D0H.2 DATA     BIT       OV
*SFR* 000000D0H.0 DATA     BIT       P
*SFR* 00000080H   DATA     BYTE      P0
*SFR* 00000090H   DATA     BYTE      P1
*SFR* 000000A0H   DATA     BYTE      P2
*SFR* 000000B0H   DATA     BYTE      P3
*SFR* 00000087H   DATA     BYTE      PCON
*SFR* 000000B8H.4 DATA     BIT       PS
*SFR* 000000D0H   DATA     BYTE      PSW
*SFR* 000000B8H.1 DATA     BIT       PT0
*SFR* 000000B8H.3 DATA     BIT       PT1
*SFR* 000000B8H.5 DATA     BIT       PT2
*SFR* 000000B8H.0 DATA     BIT       PX0
*SFR* 000000B8H.2 DATA     BIT       PX1
*SFR* 00000098H.2 DATA     BIT       RB8
*SFR* 000000CBH   DATA     BYTE      RCAP2H
*SFR* 000000CAH   DATA     BYTE      RCAP2L
*SFR* 000000C8H.5 DATA     BIT       RCLK
*SFR* 000000B0H.7 DATA     BIT       RD
*SFR* 00000098H.4 DATA     BIT       REN
*SFR* 00000098H.0 DATA     BIT       RI
*SFR* 000000D0H.3 DATA     BIT       RS0
*SFR* 000000D0H.4 DATA     BIT       RS1
*SFR* 000000B0H.0 DATA     BIT       RXD
*SFR* 00000099H   DATA     BYTE      SBUF
LX51 LINKER/LOCATER V4.66.97.0                                                        08/20/2022  23:17:42  PAGE 7


*SFR* 00000098H   DATA     BYTE      SCON
*SFR* 00000098H.7 DATA     BIT       SM0
*SFR* 00000098H.6 DATA     BIT       SM1
*SFR* 00000098H.5 DATA     BIT       SM2
*SFR* 00000081H   DATA     BYTE      SP
*SFR* 000000B0H.4 DATA     BIT       T0
*SFR* 000000B0H.5 DATA     BIT       T1
*SFR* 00000090H.0 DATA     BIT       T2
*SFR* 000000C8H   DATA     BYTE      T2CON
*SFR* 00000090H.1 DATA     BIT       T2EX
*SFR* 00000098H.3 DATA     BIT       TB8
*SFR* 000000C8H.4 DATA     BIT       TCLK
*SFR* 00000088H   DATA     BYTE      TCON
*SFR* 00000088H.5 DATA     BIT       TF0
*SFR* 00000088H.7 DATA     BIT       TF1
*SFR* 000000C8H.7 DATA     BIT       TF2
*SFR* 0000008CH   DATA     BYTE      TH0
*SFR* 0000008DH   DATA     BYTE      TH1
*SFR* 000000CDH   DATA     BYTE      TH2
*SFR* 00000098H.1 DATA     BIT       TI
*SFR* 0000008AH   DATA     BYTE      TL0
*SFR* 0000008BH   DATA     BYTE      TL1
*SFR* 000000CCH   DATA     BYTE      TL2
*SFR* 00000089H   DATA     BYTE      TMOD
*SFR* 00000088H.4 DATA     BIT       TR0
*SFR* 00000088H.6 DATA     BIT       TR1
*SFR* 000000C8H.2 DATA     BIT       TR2
*SFR* 000000B0H.1 DATA     BIT       TXD
*SFR* 000000B0H.6 DATA     BIT       WR



SYMBOL TABLE OF MODULE:  .\Objects\MCUdesign (MAIN)

      VALUE       REP       CLASS    TYPE      SYMBOL NAME
      ====================================================
      ---         MODULE    ---      ---       MAIN
      010008B1H   PUBLIC    CODE     ---       main
      00000080H   SFRSYM    DATA     BYTE      P0
      00000090H   SFRSYM    DATA     BYTE      P1
      000000A0H   SFRSYM    DATA     BYTE      P2
      000000B0H   SFRSYM    DATA     BYTE      P3
      000000B0H.4 SFRSYM    DATA     BIT       T0
      000000D0H.6 SFRSYM    DATA     BIT       AC
      000000B0H.5 SFRSYM    DATA     BIT       T1
      00000090H.0 SFRSYM    DATA     BIT       T2
      000000A8H.7 SFRSYM    DATA     BIT       EA
      000000A8H   SFRSYM    DATA     BYTE      IE
      000000C8H.6 SFRSYM    DATA     BIT       EXF2
      000000B0H.7 SFRSYM    DATA     BIT       RD
      000000A8H.4 SFRSYM    DATA     BIT       ES
      000000B8H   SFRSYM    DATA     BYTE      IP
      00000098H.0 SFRSYM    DATA     BIT       RI
      000000B0H.2 SFRSYM    DATA     BIT       INT0
      000000D0H.7 SFRSYM    DATA     BIT       CY
      00000098H.1 SFRSYM    DATA     BIT       TI
      000000B0H.3 SFRSYM    DATA     BIT       INT1
      000000CBH   SFRSYM    DATA     BYTE      RCAP2H
      000000B8H.4 SFRSYM    DATA     BIT       PS
      00000081H   SFRSYM    DATA     BYTE      SP
      00000090H.1 SFRSYM    DATA     BIT       T2EX
      000000D0H.2 SFRSYM    DATA     BIT       OV
      000000CAH   SFRSYM    DATA     BYTE      RCAP2L
      000000C8H.1 SFRSYM    DATA     BIT       C_T2
      000000B0H.6 SFRSYM    DATA     BIT       WR
LX51 LINKER/LOCATER V4.66.97.0                                                        08/20/2022  23:17:42  PAGE 8


      000000C8H.5 SFRSYM    DATA     BIT       RCLK
      000000C8H.4 SFRSYM    DATA     BIT       TCLK
      00000099H   SFRSYM    DATA     BYTE      SBUF
      00000087H   SFRSYM    DATA     BYTE      PCON
      00000098H   SFRSYM    DATA     BYTE      SCON
      00000090H.1 SFRSYM    DATA     BIT       OLED_SDIN
      00000089H   SFRSYM    DATA     BYTE      TMOD
      00000088H   SFRSYM    DATA     BYTE      TCON
      00000088H.1 SFRSYM    DATA     BIT       IE0
      00000088H.3 SFRSYM    DATA     BIT       IE1
      000000F0H   SFRSYM    DATA     BYTE      B
      000000C8H.0 SFRSYM    DATA     BIT       CP_RL2
      000000E0H   SFRSYM    DATA     BYTE      ACC
      000000A8H.1 SFRSYM    DATA     BIT       ET0
      000000A8H.3 SFRSYM    DATA     BIT       ET1
      00000088H.5 SFRSYM    DATA     BIT       TF0
      000000A8H.5 SFRSYM    DATA     BIT       ET2
      00000088H.7 SFRSYM    DATA     BIT       TF1
      000000C8H.7 SFRSYM    DATA     BIT       TF2
      00000098H.2 SFRSYM    DATA     BIT       RB8
      0000008CH   SFRSYM    DATA     BYTE      TH0
      000000A8H.0 SFRSYM    DATA     BIT       EX0
      00000088H.0 SFRSYM    DATA     BIT       IT0
      0000008DH   SFRSYM    DATA     BYTE      TH1
      00000098H.3 SFRSYM    DATA     BIT       TB8
      000000A8H.2 SFRSYM    DATA     BIT       EX1
      00000088H.2 SFRSYM    DATA     BIT       IT1
      000000CDH   SFRSYM    DATA     BYTE      TH2
      000000D0H.0 SFRSYM    DATA     BIT       P
      00000098H.7 SFRSYM    DATA     BIT       SM0
      0000008AH   SFRSYM    DATA     BYTE      TL0
      00000098H.6 SFRSYM    DATA     BIT       SM1
      0000008BH   SFRSYM    DATA     BYTE      TL1
      00000098H.5 SFRSYM    DATA     BIT       SM2
      000000CCH   SFRSYM    DATA     BYTE      TL2
      000000B8H.1 SFRSYM    DATA     BIT       PT0
      000000B8H.3 SFRSYM    DATA     BIT       PT1
      000000D0H.3 SFRSYM    DATA     BIT       RS0
      000000B8H.5 SFRSYM    DATA     BIT       PT2
      00000088H.4 SFRSYM    DATA     BIT       TR0
      000000D0H.4 SFRSYM    DATA     BIT       RS1
      00000088H.6 SFRSYM    DATA     BIT       TR1
      000000C8H.2 SFRSYM    DATA     BIT       TR2
      000000B8H.0 SFRSYM    DATA     BIT       PX0
      000000B8H.2 SFRSYM    DATA     BIT       PX1
      00000083H   SFRSYM    DATA     BYTE      DPH
      00000082H   SFRSYM    DATA     BYTE      DPL
      000000C8H.3 SFRSYM    DATA     BIT       EXEN2
      00000098H.4 SFRSYM    DATA     BIT       REN
      000000C8H   SFRSYM    DATA     BYTE      T2CON
      00000090H.0 SFRSYM    DATA     BIT       OLED_SCL
      000000B0H.0 SFRSYM    DATA     BIT       RXD
      000000B0H.1 SFRSYM    DATA     BIT       TXD
      000000D0H.5 SFRSYM    DATA     BIT       F0
      000000D0H   SFRSYM    DATA     BYTE      PSW

      010008B1H   BLOCK     CODE     ---       LVL=0
      010008B1H   BLOCK     CODE     NEAR LAB  LVL=1
      00000008H   SYMBOL    DATA     WORD      temp_int
      0000000AH   SYMBOL    DATA     WORD      humi_int
      ---         BLOCKEND  ---      ---       LVL=1
      010008B1H   LINE      CODE     ---       #22
      010008B1H   LINE      CODE     ---       #30
      010008BCH   LINE      CODE     ---       #31
      010008BFH   LINE      CODE     ---       #32
LX51 LINKER/LOCATER V4.66.97.0                                                        08/20/2022  23:17:42  PAGE 9


      010008C2H   LINE      CODE     ---       #34
      010008D2H   LINE      CODE     ---       #35
      010008E2H   LINE      CODE     ---       #39
      010008F2H   LINE      CODE     ---       #40
      01000902H   LINE      CODE     ---       #43
      01000905H   LINE      CODE     ---       #47
      01000905H   LINE      CODE     ---       #49
      01000917H   LINE      CODE     ---       #50
      0100091EH   LINE      CODE     ---       #53
      0100093AH   LINE      CODE     ---       #54
      0100094AH   LINE      CODE     ---       #55
      01000966H   LINE      CODE     ---       #61
      01000982H   LINE      CODE     ---       #68
      ---         BLOCKEND  ---      ---       LVL=0

      ---         MODULE    ---      ---       DELAY
      01000BF7H   PUBLIC    CODE     ---       _Delay_ms
      01000C54H   PUBLIC    CODE     ---       Delay1ms

      01000C54H   BLOCK     CODE     ---       LVL=0
      01000C54H   BLOCK     CODE     NEAR LAB  LVL=1
      00000007H   SYMBOL    DATA     BYTE      i
      00000006H   SYMBOL    DATA     BYTE      j
      ---         BLOCKEND  ---      ---       LVL=1
      01000C54H   LINE      CODE     ---       #7
      01000C54H   LINE      CODE     ---       #8
      01000C54H   LINE      CODE     ---       #11
      01000C56H   LINE      CODE     ---       #12
      01000C58H   LINE      CODE     ---       #14
      01000C58H   LINE      CODE     ---       #15
      01000C5AH   LINE      CODE     ---       #16
      01000C5CH   LINE      CODE     ---       #17
      ---         BLOCKEND  ---      ---       LVL=0

      01000BF7H   BLOCK     CODE     ---       LVL=0
      00000004H   SYMBOL    DATA     WORD      x
      01000BF7H   LINE      CODE     ---       #25
      01000BFBH   LINE      CODE     ---       #26
      01000BFBH   LINE      CODE     ---       #28
      01000C05H   LINE      CODE     ---       #30
      01000C08H   LINE      CODE     ---       #31
      01000C0AH   LINE      CODE     ---       #32
      ---         BLOCKEND  ---      ---       LVL=0

      ---         MODULE    ---      ---       OLED
      010014AFH   PUBLIC    CONST    ---       Hzk
      01000EBFH   PUBLIC    CONST    ---       F8X16
      01000C97H   PUBLIC    CONST    ---       F6x8
      010006F6H   PUBLIC    CODE     ---       OLED_Init
      0000000CH   PUBLIC    DATA     BYTE      ?_OLED_ShowString?BYTE
      010009FEH   PUBLIC    CODE     ---       _OLED_ShowString
      0000000CH   PUBLIC    DATA     BYTE      ?_OLED_ShowNum?BYTE
      01000984H   PUBLIC    CODE     ---       _OLED_ShowNum
      01000BC9H   PUBLIC    CODE     ---       _oled_pow
      00000015H   PUBLIC    DATA     BYTE      ?_OLED_ShowChar?BYTE
      010007D6H   PUBLIC    CODE     ---       _OLED_ShowChar
      01000A42H   PUBLIC    CODE     ---       OLED_Clear
      01000AD1H   PUBLIC    CODE     ---       _OLED_Set_Pos
      01000AC0H   PUBLIC    CODE     ---       _OLED_WR_Byte
      00000080H   SFRSYM    DATA     BYTE      P0
      00000090H   SFRSYM    DATA     BYTE      P1
      000000A0H   SFRSYM    DATA     BYTE      P2
      000000B0H   SFRSYM    DATA     BYTE      P3
      000000B0H.4 SFRSYM    DATA     BIT       T0
      000000D0H.6 SFRSYM    DATA     BIT       AC
LX51 LINKER/LOCATER V4.66.97.0                                                        08/20/2022  23:17:42  PAGE 10


      000000B0H.5 SFRSYM    DATA     BIT       T1
      00000090H.0 SFRSYM    DATA     BIT       T2
      000000A8H.7 SFRSYM    DATA     BIT       EA
      000000A8H   SFRSYM    DATA     BYTE      IE
      000000C8H.6 SFRSYM    DATA     BIT       EXF2
      000000B0H.7 SFRSYM    DATA     BIT       RD
      000000A8H.4 SFRSYM    DATA     BIT       ES
      000000B8H   SFRSYM    DATA     BYTE      IP
      00000098H.0 SFRSYM    DATA     BIT       RI
      000000B0H.2 SFRSYM    DATA     BIT       INT0
      000000D0H.7 SFRSYM    DATA     BIT       CY
      00000098H.1 SFRSYM    DATA     BIT       TI
      000000B0H.3 SFRSYM    DATA     BIT       INT1
      000000CBH   SFRSYM    DATA     BYTE      RCAP2H
      000000B8H.4 SFRSYM    DATA     BIT       PS
      00000081H   SFRSYM    DATA     BYTE      SP
      00000090H.1 SFRSYM    DATA     BIT       T2EX
      000000D0H.2 SFRSYM    DATA     BIT       OV
      000000CAH   SFRSYM    DATA     BYTE      RCAP2L
      000000C8H.1 SFRSYM    DATA     BIT       C_T2
      000000B0H.6 SFRSYM    DATA     BIT       WR
      000000C8H.5 SFRSYM    DATA     BIT       RCLK
      000000C8H.4 SFRSYM    DATA     BIT       TCLK
      00000099H   SFRSYM    DATA     BYTE      SBUF
      00000087H   SFRSYM    DATA     BYTE      PCON
      00000098H   SFRSYM    DATA     BYTE      SCON
      00000090H.1 SFRSYM    DATA     BIT       OLED_SDIN
      00000089H   SFRSYM    DATA     BYTE      TMOD
      00000088H   SFRSYM    DATA     BYTE      TCON
      00000088H.1 SFRSYM    DATA     BIT       IE0
      00000088H.3 SFRSYM    DATA     BIT       IE1
      000000F0H   SFRSYM    DATA     BYTE      B
      000000C8H.0 SFRSYM    DATA     BIT       CP_RL2
      000000E0H   SFRSYM    DATA     BYTE      ACC
      000000A8H.1 SFRSYM    DATA     BIT       ET0
      000000A8H.3 SFRSYM    DATA     BIT       ET1
      00000088H.5 SFRSYM    DATA     BIT       TF0
      000000A8H.5 SFRSYM    DATA     BIT       ET2
      00000088H.7 SFRSYM    DATA     BIT       TF1
      000000C8H.7 SFRSYM    DATA     BIT       TF2
      00000098H.2 SFRSYM    DATA     BIT       RB8
      0000008CH   SFRSYM    DATA     BYTE      TH0
      000000A8H.0 SFRSYM    DATA     BIT       EX0
      00000088H.0 SFRSYM    DATA     BIT       IT0
      0000008DH   SFRSYM    DATA     BYTE      TH1
      00000098H.3 SFRSYM    DATA     BIT       TB8
      000000A8H.2 SFRSYM    DATA     BIT       EX1
      00000088H.2 SFRSYM    DATA     BIT       IT1
      000000CDH   SFRSYM    DATA     BYTE      TH2
      000000D0H.0 SFRSYM    DATA     BIT       P
      00000098H.7 SFRSYM    DATA     BIT       SM0
      0000008AH   SFRSYM    DATA     BYTE      TL0
      00000098H.6 SFRSYM    DATA     BIT       SM1
      0000008BH   SFRSYM    DATA     BYTE      TL1
      00000098H.5 SFRSYM    DATA     BIT       SM2
      000000CCH   SFRSYM    DATA     BYTE      TL2
      000000B8H.1 SFRSYM    DATA     BIT       PT0
      000000B8H.3 SFRSYM    DATA     BIT       PT1
      000000D0H.3 SFRSYM    DATA     BIT       RS0
      000000B8H.5 SFRSYM    DATA     BIT       PT2
      00000088H.4 SFRSYM    DATA     BIT       TR0
      000000D0H.4 SFRSYM    DATA     BIT       RS1
      00000088H.6 SFRSYM    DATA     BIT       TR1
      000000C8H.2 SFRSYM    DATA     BIT       TR2
      000000B8H.0 SFRSYM    DATA     BIT       PX0
LX51 LINKER/LOCATER V4.66.97.0                                                        08/20/2022  23:17:42  PAGE 11


      000000B8H.2 SFRSYM    DATA     BIT       PX1
      00000083H   SFRSYM    DATA     BYTE      DPH
      00000082H   SFRSYM    DATA     BYTE      DPL
      000000C8H.3 SFRSYM    DATA     BIT       EXEN2
      00000098H.4 SFRSYM    DATA     BIT       REN
      000000C8H   SFRSYM    DATA     BYTE      T2CON
      00000090H.0 SFRSYM    DATA     BIT       OLED_SCL
      000000B0H.0 SFRSYM    DATA     BIT       RXD
      000000B0H.1 SFRSYM    DATA     BIT       TXD
      000000D0H.5 SFRSYM    DATA     BIT       F0
      000000D0H   SFRSYM    DATA     BYTE      PSW
      01000C3AH   SYMBOL    CODE     ---       _Write_IIC_Data
      01000A74H   SYMBOL    CODE     ---       _Write_IIC_Byte
      01000C1CH   SYMBOL    CODE     ---       IIC_Wait_Ack
      01000C5DH   SYMBOL    CODE     ---       IIC_Start
      01000C78H   SYMBOL    CODE     ---       IIC_Stop
      01000C2CH   SYMBOL    CODE     ---       _Write_IIC_Command
      00000006H   SYMBOL    DATA     WORD      ms
      00000004H   SYMBOL    DATA     WORD      a

      01000C5DH   BLOCK     CODE     ---       LVL=0
      01000C5DH   LINE      CODE     ---       #64
      01000C5DH   LINE      CODE     ---       #65
      01000C5DH   LINE      CODE     ---       #67
      01000C5FH   LINE      CODE     ---       #68
      01000C61H   LINE      CODE     ---       #69
      01000C63H   LINE      CODE     ---       #70
      01000C65H   LINE      CODE     ---       #71
      ---         BLOCKEND  ---      ---       LVL=0

      01000C78H   BLOCK     CODE     ---       LVL=0
      01000C78H   LINE      CODE     ---       #79
      01000C78H   LINE      CODE     ---       #80
      01000C78H   LINE      CODE     ---       #81
      01000C7AH   LINE      CODE     ---       #83
      01000C7CH   LINE      CODE     ---       #84
      01000C7EH   LINE      CODE     ---       #86
      ---         BLOCKEND  ---      ---       LVL=0

      01000C1CH   BLOCK     CODE     ---       LVL=0
      ---         BLOCKEND  ---      ---       LVL=0

      01000C27H   BLOCK     CODE     ---       LVL=0
      01000C27H   LINE      CODE     ---       #88
      01000C27H   LINE      CODE     ---       #89
      01000C27H   LINE      CODE     ---       #107
      01000C29H   LINE      CODE     ---       #108
      01000C2BH   LINE      CODE     ---       #109
      ---         BLOCKEND  ---      ---       LVL=0

      01000A74H   BLOCK     CODE     ---       LVL=0
      ---         BLOCKEND  ---      ---       LVL=0

      01000A7BH   BLOCK     CODE     ---       LVL=0
      00000007H   SYMBOL    DATA     BYTE      IIC_Byte
      00000006H   SYMBOL    DATA     BYTE      i
      00000005H   SYMBOL    DATA     BYTE      m
      00000007H   SYMBOL    DATA     BYTE      da
      01000A7BH   BLOCK     CODE     NEAR LAB  LVL=1
      00000006H   SYMBOL    DATA     BYTE      i
      00000005H   SYMBOL    DATA     BYTE      m
      00000007H   SYMBOL    DATA     BYTE      da
      ---         BLOCKEND  ---      ---       LVL=1
      01000A7BH   LINE      CODE     ---       #118
      01000A7BH   LINE      CODE     ---       #119
LX51 LINKER/LOCATER V4.66.97.0                                                        08/20/2022  23:17:42  PAGE 12


      01000A7BH   LINE      CODE     ---       #122
      01000A7BH   LINE      CODE     ---       #123
      01000A7DH   LINE      CODE     ---       #124
      01000A89H   LINE      CODE     ---       #125
      01000A89H   LINE      CODE     ---       #126
      01000A8BH   LINE      CODE     ---       #128
      01000A8EH   LINE      CODE     ---       #129
      01000A93H   LINE      CODE     ---       #130
      01000A97H   LINE      CODE     ---       #131
      01000A99H   LINE      CODE     ---       #132
      01000A9DH   LINE      CODE     ---       #133
      01000A9FH   LINE      CODE     ---       #134
      01000AA1H   LINE      CODE     ---       #135
      01000AA4H   LINE      CODE     ---       #138
      ---         BLOCKEND  ---      ---       LVL=0

      01000C2CH   BLOCK     CODE     ---       LVL=0
      00000004H   SYMBOL    DATA     BYTE      IIC_Command
      01000C2CH   LINE      CODE     ---       #148
      01000C2CH   LINE      CODE     ---       #149
      01000C2CH   LINE      CODE     ---       #150
      01000C2CH   LINE      CODE     ---       #151
      01000C2FH   LINE      CODE     ---       #152
      01000C32H   LINE      CODE     ---       #153
      01000C34H   LINE      CODE     ---       #154
      01000C34H   LINE      CODE     ---       #155
      01000C34H   LINE      CODE     ---       #156
      01000C37H   LINE      CODE     ---       #157
      ---         BLOCKEND  ---      ---       LVL=0

      01000C3AH   BLOCK     CODE     ---       LVL=0
      00000004H   SYMBOL    DATA     BYTE      IIC_Data
      01000C3AH   LINE      CODE     ---       #168
      01000C3AH   LINE      CODE     ---       #169
      01000C3AH   LINE      CODE     ---       #170
      01000C3AH   LINE      CODE     ---       #171
      01000C3DH   LINE      CODE     ---       #172
      01000C40H   LINE      CODE     ---       #173
      01000C42H   LINE      CODE     ---       #174
      01000C42H   LINE      CODE     ---       #175
      01000C42H   LINE      CODE     ---       #176
      01000C45H   LINE      CODE     ---       #177
      ---         BLOCKEND  ---      ---       LVL=0

      01000AA5H   BLOCK     CODE     ---       LVL=0
      ---         BLOCKEND  ---      ---       LVL=0

      01000AC0H   BLOCK     CODE     ---       LVL=0
      00000002H   SYMBOL    DATA     WORD      dat
      00000004H   SYMBOL    DATA     WORD      cmd
      01000AC0H   LINE      CODE     ---       #182
      01000AC4H   LINE      CODE     ---       #183
      01000AC4H   LINE      CODE     ---       #184
      01000AC8H   LINE      CODE     ---       #186
      01000ACBH   LINE      CODE     ---       #187
      01000ACBH   LINE      CODE     ---       #188
      01000ACBH   LINE      CODE     ---       #189
      01000AD0H   LINE      CODE     ---       #191
      01000AD0H   LINE      CODE     ---       #193
      ---         BLOCKEND  ---      ---       LVL=0
      00000001H   SYMBOL    DATA     BYTE      m
      00000006H   SYMBOL    DATA     WORD      Del_50ms
      00000004H   SYMBOL    DATA     WORD      m
      00000006H   SYMBOL    DATA     WORD      Del_1ms
      00000005H   SYMBOL    DATA     BYTE      j
LX51 LINKER/LOCATER V4.66.97.0                                                        08/20/2022  23:17:42  PAGE 13



      01000AD1H   BLOCK     CODE     ---       LVL=0
      00000001H   SYMBOL    DATA     BYTE      x
      00000005H   SYMBOL    DATA     BYTE      y
      01000AD1H   LINE      CODE     ---       #245
      01000AD3H   LINE      CODE     ---       #246
      01000AE0H   LINE      CODE     ---       #247
      01000AF1H   LINE      CODE     ---       #248
      ---         BLOCKEND  ---      ---       LVL=0

      01000A42H   BLOCK     CODE     ---       LVL=0
      01000A42H   BLOCK     CODE     NEAR LAB  LVL=1
      00000001H   SYMBOL    DATA     BYTE      i
      0000000CH   SYMBOL    DATA     BYTE      n
      ---         BLOCKEND  ---      ---       LVL=1
      01000A42H   LINE      CODE     ---       #271
      01000A42H   LINE      CODE     ---       #272
      01000A42H   LINE      CODE     ---       #274
      01000A51H   LINE      CODE     ---       #275
      01000A51H   LINE      CODE     ---       #276
      01000A51H   LINE      CODE     ---       #277
      01000A51H   LINE      CODE     ---       #278
      01000A54H   LINE      CODE     ---       #279
      01000A70H   LINE      CODE     ---       #280
      01000A73H   LINE      CODE     ---       #281
      ---         BLOCKEND  ---      ---       LVL=0
      00000001H   SYMBOL    DATA     BYTE      i

      010007D6H   BLOCK     CODE     ---       LVL=0
      00000015H   SYMBOL    DATA     BYTE      x
      00000016H   SYMBOL    DATA     BYTE      y
      00000003H   SYMBOL    DATA     BYTE      chr
      00000018H   SYMBOL    DATA     BYTE      Char_Size
      010007DAH   BLOCK     CODE     NEAR LAB  LVL=1
      00000019H   SYMBOL    DATA     BYTE      c
      00000001H   SYMBOL    DATA     BYTE      i
      ---         BLOCKEND  ---      ---       LVL=1
      010007D6H   LINE      CODE     ---       #302
      010007DAH   LINE      CODE     ---       #303
      010007DAH   LINE      CODE     ---       #304
      010007DEH   LINE      CODE     ---       #305
      010007E3H   LINE      CODE     ---       #306
      010007EDH   LINE      CODE     ---       #307
      010007F4H   LINE      CODE     ---       #308
      010007F4H   LINE      CODE     ---       #309
      010007FAH   LINE      CODE     ---       #311
      01000801H   LINE      CODE     ---       #312
      0100080DH   LINE      CODE     ---       #313
      01000836H   LINE      CODE     ---       #314
      0100083FH   LINE      CODE     ---       #315
      0100084BH   LINE      CODE     ---       #316
      01000874H   LINE      CODE     ---       #318
      01000874H   LINE      CODE     ---       #320
      0100087BH   LINE      CODE     ---       #321
      01000887H   LINE      CODE     ---       #323
      010008ADH   LINE      CODE     ---       #324
      010008B0H   LINE      CODE     ---       #326
      010008B0H   LINE      CODE     ---       #327
      ---         BLOCKEND  ---      ---       LVL=0

      01000BC9H   BLOCK     CODE     ---       LVL=0
      00000015H   SYMBOL    DATA     BYTE      m
      00000001H   SYMBOL    DATA     BYTE      n
      01000BCDH   BLOCK     CODE     NEAR LAB  LVL=1
      00000006H   SYMBOL    DATA     WORD      result
LX51 LINKER/LOCATER V4.66.97.0                                                        08/20/2022  23:17:42  PAGE 14


      ---         BLOCKEND  ---      ---       LVL=1
      01000BC9H   LINE      CODE     ---       #332
      01000BCDH   LINE      CODE     ---       #333
      01000BCDH   LINE      CODE     ---       #334
      01000BD1H   LINE      CODE     ---       #335
      01000BE0H   LINE      CODE     ---       #336
      01000BE0H   LINE      CODE     ---       #337
      ---         BLOCKEND  ---      ---       LVL=0

      01000984H   BLOCK     CODE     ---       LVL=0
      0000000CH   SYMBOL    DATA     BYTE      x
      0000000DH   SYMBOL    DATA     BYTE      y
      0000000EH   SYMBOL    DATA     WORD      num
      00000010H   SYMBOL    DATA     BYTE      len
      00000011H   SYMBOL    DATA     BYTE      size2
      0100098CH   BLOCK     CODE     NEAR LAB  LVL=1
      00000012H   SYMBOL    DATA     BYTE      t
      00000013H   SYMBOL    DATA     BYTE      temp
      00000014H   SYMBOL    DATA     BYTE      enshow
      ---         BLOCKEND  ---      ---       LVL=1
      01000984H   LINE      CODE     ---       #347
      0100098CH   LINE      CODE     ---       #348
      0100098CH   LINE      CODE     ---       #350
      0100098FH   LINE      CODE     ---       #351
      01000998H   LINE      CODE     ---       #352
      01000998H   LINE      CODE     ---       #353
      010009BAH   LINE      CODE     ---       #354
      010009C8H   LINE      CODE     ---       #355
      010009C8H   LINE      CODE     ---       #356
      010009CCH   LINE      CODE     ---       #357
      010009CCH   LINE      CODE     ---       #358
      010009DCH   LINE      CODE     ---       #359
      010009DEH   LINE      CODE     ---       #360
      010009E1H   LINE      CODE     ---       #362
      010009E1H   LINE      CODE     ---       #363
      010009F9H   LINE      CODE     ---       #364
      010009FDH   LINE      CODE     ---       #365
      ---         BLOCKEND  ---      ---       LVL=0

      010009FEH   BLOCK     CODE     ---       LVL=0
      0000000CH   SYMBOL    DATA     BYTE      x
      0000000DH   SYMBOL    DATA     BYTE      y
      0000000EH   SYMBOL    DATA     ---       chr
      00000011H   SYMBOL    DATA     BYTE      Char_Size
      01000A08H   BLOCK     CODE     NEAR LAB  LVL=1
      00000012H   SYMBOL    DATA     BYTE      j
      ---         BLOCKEND  ---      ---       LVL=1
      010009FEH   LINE      CODE     ---       #369
      01000A08H   LINE      CODE     ---       #370
      01000A08H   LINE      CODE     ---       #371
      01000A0BH   LINE      CODE     ---       #372
      01000A1DH   LINE      CODE     ---       #373
      01000A1DH   LINE      CODE     ---       #374
      01000A27H   LINE      CODE     ---       #375
      01000A2DH   LINE      CODE     ---       #376
      01000A36H   LINE      CODE     ---       #377
      01000A3DH   LINE      CODE     ---       #378
      01000A3DH   LINE      CODE     ---       #379
      01000A3FH   LINE      CODE     ---       #380
      01000A41H   LINE      CODE     ---       #381
      ---         BLOCKEND  ---      ---       LVL=0
      00000001H   SYMBOL    DATA     BYTE      t
      00000005H   SYMBOL    DATA     BYTE      y0

      010006F6H   BLOCK     CODE     ---       LVL=0
LX51 LINKER/LOCATER V4.66.97.0                                                        08/20/2022  23:17:42  PAGE 15


      010006F6H   LINE      CODE     ---       #425
      010006F6H   LINE      CODE     ---       #426
      010006F6H   LINE      CODE     ---       #428
      010006FCH   LINE      CODE     ---       #429
      010006FCH   LINE      CODE     ---       #430
      010006FFH   LINE      CODE     ---       #431
      01000708H   LINE      CODE     ---       #432
      01000711H   LINE      CODE     ---       #433
      0100071AH   LINE      CODE     ---       #434
      01000723H   LINE      CODE     ---       #435
      0100072CH   LINE      CODE     ---       #436
      01000735H   LINE      CODE     ---       #437
      0100073EH   LINE      CODE     ---       #438
      01000747H   LINE      CODE     ---       #439
      01000750H   LINE      CODE     ---       #440
      01000759H   LINE      CODE     ---       #441
      01000761H   LINE      CODE     ---       #443
      0100076AH   LINE      CODE     ---       #444
      01000773H   LINE      CODE     ---       #446
      0100077CH   LINE      CODE     ---       #447
      01000785H   LINE      CODE     ---       #449
      0100078EH   LINE      CODE     ---       #450
      01000797H   LINE      CODE     ---       #452
      010007A0H   LINE      CODE     ---       #453
      010007A9H   LINE      CODE     ---       #455
      010007B2H   LINE      CODE     ---       #456
      010007BBH   LINE      CODE     ---       #458
      010007C4H   LINE      CODE     ---       #459
      010007CDH   LINE      CODE     ---       #461
      ---         BLOCKEND  ---      ---       LVL=0

      ---         MODULE    ---      ---       AHT10
      0000000CH   PUBLIC    DATA     BYTE      ?_AHT10_Read_Data?BYTE
      0100053DH   PUBLIC    CODE     ---       _AHT10_Read_Data
      01000B93H   PUBLIC    CODE     ---       AHT10_Init
      01000B4AH   PUBLIC    CODE     ---       AHT10Init
      01000C0BH   PUBLIC    CODE     ---       AHT10_CalEN
      01000BB0H   PUBLIC    CODE     ---       AHT10_Status
      01000B24H   PUBLIC    CODE     ---       AHT10_Mea
      01000BE1H   PUBLIC    CODE     ---       AHT10_RST
      00000080H   SFRSYM    DATA     BYTE      P0
      00000090H   SFRSYM    DATA     BYTE      P1
      000000A0H   SFRSYM    DATA     BYTE      P2
      000000B0H   SFRSYM    DATA     BYTE      P3
      000000B0H.4 SFRSYM    DATA     BIT       T0
      000000D0H.6 SFRSYM    DATA     BIT       AC
      000000B0H.5 SFRSYM    DATA     BIT       T1
      00000090H.0 SFRSYM    DATA     BIT       T2
      000000A8H.7 SFRSYM    DATA     BIT       EA
      000000A8H   SFRSYM    DATA     BYTE      IE
      00000090H.2 SFRSYM    DATA     BIT       IIC_SDA
      000000C8H.6 SFRSYM    DATA     BIT       EXF2
      000000B0H.7 SFRSYM    DATA     BIT       RD
      000000A8H.4 SFRSYM    DATA     BIT       ES
      00000090H.3 SFRSYM    DATA     BIT       IIC_SCL
      000000B8H   SFRSYM    DATA     BYTE      IP
      00000098H.0 SFRSYM    DATA     BIT       RI
      000000B0H.2 SFRSYM    DATA     BIT       INT0
      000000D0H.7 SFRSYM    DATA     BIT       CY
      00000098H.1 SFRSYM    DATA     BIT       TI
      000000B0H.3 SFRSYM    DATA     BIT       INT1
      000000CBH   SFRSYM    DATA     BYTE      RCAP2H
      000000B8H.4 SFRSYM    DATA     BIT       PS
      00000081H   SFRSYM    DATA     BYTE      SP
      00000090H.1 SFRSYM    DATA     BIT       T2EX
LX51 LINKER/LOCATER V4.66.97.0                                                        08/20/2022  23:17:42  PAGE 16


      000000D0H.2 SFRSYM    DATA     BIT       OV
      000000CAH   SFRSYM    DATA     BYTE      RCAP2L
      000000C8H.1 SFRSYM    DATA     BIT       C_T2
      000000B0H.6 SFRSYM    DATA     BIT       WR
      000000C8H.5 SFRSYM    DATA     BIT       RCLK
      000000C8H.4 SFRSYM    DATA     BIT       TCLK
      00000099H   SFRSYM    DATA     BYTE      SBUF
      00000087H   SFRSYM    DATA     BYTE      PCON
      00000098H   SFRSYM    DATA     BYTE      SCON
      00000089H   SFRSYM    DATA     BYTE      TMOD
      00000088H   SFRSYM    DATA     BYTE      TCON
      00000088H.1 SFRSYM    DATA     BIT       IE0
      00000088H.3 SFRSYM    DATA     BIT       IE1
      000000F0H   SFRSYM    DATA     BYTE      B
      000000C8H.0 SFRSYM    DATA     BIT       CP_RL2
      000000E0H   SFRSYM    DATA     BYTE      ACC
      000000A8H.1 SFRSYM    DATA     BIT       ET0
      000000A8H.3 SFRSYM    DATA     BIT       ET1
      00000088H.5 SFRSYM    DATA     BIT       TF0
      000000A8H.5 SFRSYM    DATA     BIT       ET2
      00000088H.7 SFRSYM    DATA     BIT       TF1
      000000C8H.7 SFRSYM    DATA     BIT       TF2
      00000098H.2 SFRSYM    DATA     BIT       RB8
      0000008CH   SFRSYM    DATA     BYTE      TH0
      000000A8H.0 SFRSYM    DATA     BIT       EX0
      00000088H.0 SFRSYM    DATA     BIT       IT0
      0000008DH   SFRSYM    DATA     BYTE      TH1
      00000098H.3 SFRSYM    DATA     BIT       TB8
      000000A8H.2 SFRSYM    DATA     BIT       EX1
      00000088H.2 SFRSYM    DATA     BIT       IT1
      000000CDH   SFRSYM    DATA     BYTE      TH2
      000000D0H.0 SFRSYM    DATA     BIT       P
      00000098H.7 SFRSYM    DATA     BIT       SM0
      0000008AH   SFRSYM    DATA     BYTE      TL0
      00000098H.6 SFRSYM    DATA     BIT       SM1
      0000008BH   SFRSYM    DATA     BYTE      TL1
      00000098H.5 SFRSYM    DATA     BIT       SM2
      000000CCH   SFRSYM    DATA     BYTE      TL2
      000000B8H.1 SFRSYM    DATA     BIT       PT0
      000000B8H.3 SFRSYM    DATA     BIT       PT1
      000000D0H.3 SFRSYM    DATA     BIT       RS0
      000000B8H.5 SFRSYM    DATA     BIT       PT2
      00000088H.4 SFRSYM    DATA     BIT       TR0
      000000D0H.4 SFRSYM    DATA     BIT       RS1
      00000088H.6 SFRSYM    DATA     BIT       TR1
      000000C8H.2 SFRSYM    DATA     BIT       TR2
      000000B8H.0 SFRSYM    DATA     BIT       PX0
      000000B8H.2 SFRSYM    DATA     BIT       PX1
      00000083H   SFRSYM    DATA     BYTE      DPH
      00000082H   SFRSYM    DATA     BYTE      DPL
      000000C8H.3 SFRSYM    DATA     BIT       EXEN2
      00000098H.4 SFRSYM    DATA     BIT       REN
      000000C8H   SFRSYM    DATA     BYTE      T2CON
      000000B0H.0 SFRSYM    DATA     BIT       RXD
      000000B0H.1 SFRSYM    DATA     BIT       TXD
      000000D0H.5 SFRSYM    DATA     BIT       F0
      000000D0H   SFRSYM    DATA     BYTE      PSW
      01001681H   SYMBOL    CONST    ---       _?ix1000

      01000BE1H   BLOCK     CODE     ---       LVL=0
      01000BE1H   LINE      CODE     ---       #7
      01000BE1H   LINE      CODE     ---       #8
      01000BE1H   LINE      CODE     ---       #9
      01000BE4H   LINE      CODE     ---       #10
      01000BE9H   LINE      CODE     ---       #11
LX51 LINKER/LOCATER V4.66.97.0                                                        08/20/2022  23:17:42  PAGE 17


      01000BECH   LINE      CODE     ---       #12
      01000BF1H   LINE      CODE     ---       #13
      01000BF4H   LINE      CODE     ---       #14
      ---         BLOCKEND  ---      ---       LVL=0

      01000B24H   BLOCK     CODE     ---       LVL=0
      01000B24H   LINE      CODE     ---       #17
      01000B24H   LINE      CODE     ---       #18
      01000B24H   LINE      CODE     ---       #19
      01000B27H   LINE      CODE     ---       #20
      01000B2CH   LINE      CODE     ---       #21
      01000B2FH   LINE      CODE     ---       #22
      01000B34H   LINE      CODE     ---       #23
      01000B37H   LINE      CODE     ---       #24
      01000B3CH   LINE      CODE     ---       #25
      01000B3FH   LINE      CODE     ---       #26
      01000B44H   LINE      CODE     ---       #27
      01000B47H   LINE      CODE     ---       #28
      ---         BLOCKEND  ---      ---       LVL=0

      01000BB0H   BLOCK     CODE     ---       LVL=0
      01000BB0H   BLOCK     CODE     NEAR LAB  LVL=1
      0000001DH   SYMBOL    DATA     BYTE      byte_first
      ---         BLOCKEND  ---      ---       LVL=1
      01000BB0H   LINE      CODE     ---       #31
      01000BB0H   LINE      CODE     ---       #32
      01000BB0H   LINE      CODE     ---       #34
      01000BB3H   LINE      CODE     ---       #35
      01000BB8H   LINE      CODE     ---       #36
      01000BBBH   LINE      CODE     ---       #37
      01000BC0H   LINE      CODE     ---       #38
      01000BC3H   LINE      CODE     ---       #39
      01000BC6H   LINE      CODE     ---       #40
      01000BC8H   LINE      CODE     ---       #41
      ---         BLOCKEND  ---      ---       LVL=0

      01000C0BH   BLOCK     CODE     ---       LVL=0
      01000C0BH   BLOCK     CODE     NEAR LAB  LVL=1
      00000007H   SYMBOL    DATA     BYTE      val
      ---         BLOCKEND  ---      ---       LVL=1
      01000C0BH   LINE      CODE     ---       #43
      01000C0BH   LINE      CODE     ---       #44
      01000C0DH   LINE      CODE     ---       #45
      01000C10H   LINE      CODE     ---       #46
      01000C19H   LINE      CODE     ---       #47
      01000C1BH   LINE      CODE     ---       #49
      01000C1BH   LINE      CODE     ---       #50
      ---         BLOCKEND  ---      ---       LVL=0

      01000B4AH   BLOCK     CODE     ---       LVL=0
      01000B4AH   LINE      CODE     ---       #52
      01000B4AH   LINE      CODE     ---       #53
      01000B4DH   LINE      CODE     ---       #54
      01000B52H   LINE      CODE     ---       #55
      01000B55H   LINE      CODE     ---       #56
      01000B5AH   LINE      CODE     ---       #57
      01000B5DH   LINE      CODE     ---       #58
      01000B62H   LINE      CODE     ---       #59
      01000B65H   LINE      CODE     ---       #60
      01000B6AH   LINE      CODE     ---       #61
      01000B6DH   LINE      CODE     ---       #62
      ---         BLOCKEND  ---      ---       LVL=0

      01000B93H   BLOCK     CODE     ---       LVL=0
      01000B93H   LINE      CODE     ---       #65
LX51 LINKER/LOCATER V4.66.97.0                                                        08/20/2022  23:17:42  PAGE 18


      01000B93H   LINE      CODE     ---       #66
      01000B93H   LINE      CODE     ---       #67
      01000B96H   LINE      CODE     ---       #68
      01000B98H   LINE      CODE     ---       #69
      01000B9AH   LINE      CODE     ---       #70
      01000BA0H   LINE      CODE     ---       #71
      01000BA0H   LINE      CODE     ---       #72
      01000BA3H   LINE      CODE     ---       #73
      01000BAAH   LINE      CODE     ---       #74
      01000BADH   LINE      CODE     ---       #75
      01000BAFH   LINE      CODE     ---       #76
      ---         BLOCKEND  ---      ---       LVL=0

      0100053DH   BLOCK     CODE     ---       LVL=0
      0000000CH   SYMBOL    DATA     ---       T
      0000000FH   SYMBOL    DATA     ---       S
      01000543H   BLOCK     CODE     NEAR LAB  LVL=1
      00000012H   SYMBOL    DATA     ---       Data
      00000018H   SYMBOL    DATA     DWORD     retudata
      0000001CH   SYMBOL    DATA     BYTE      n
      ---         BLOCKEND  ---      ---       LVL=1
      0100053DH   LINE      CODE     ---       #78
      01000543H   LINE      CODE     ---       #79
      01000543H   LINE      CODE     ---       #80
      01000556H   LINE      CODE     ---       #81
      0100055FH   LINE      CODE     ---       #82
      01000561H   LINE      CODE     ---       #83
      01000564H   LINE      CODE     ---       #84
      0100056BH   LINE      CODE     ---       #85
      01000572H   LINE      CODE     ---       #86
      01000572H   LINE      CODE     ---       #87
      01000579H   LINE      CODE     ---       #88
      0100057BH   LINE      CODE     ---       #89
      01000586H   LINE      CODE     ---       #90
      01000586H   LINE      CODE     ---       #91
      01000589H   LINE      CODE     ---       #92
      0100058EH   LINE      CODE     ---       #93
      01000591H   LINE      CODE     ---       #94
      0100059FH   LINE      CODE     ---       #95
      010005A9H   LINE      CODE     ---       #96
      010005B4H   LINE      CODE     ---       #97
      010005B7H   LINE      CODE     ---       #98
      010005B9H   LINE      CODE     ---       #99
      010005B9H   LINE      CODE     ---       #100
      010005BCH   LINE      CODE     ---       #101
      010005BCH   LINE      CODE     ---       #102
      010005C0H   LINE      CODE     ---       #103
      010005C3H   LINE      CODE     ---       #104
      010005CCH   LINE      CODE     ---       #105
      010005E4H   LINE      CODE     ---       #106
      0100060DH   LINE      CODE     ---       #107
      0100063FH   LINE      CODE     ---       #110
      0100067AH   LINE      CODE     ---       #111
      01000683H   LINE      CODE     ---       #112
      01000697H   LINE      CODE     ---       #113
      010006B7H   LINE      CODE     ---       #115
      ---         BLOCKEND  ---      ---       LVL=0

      ---         MODULE    ---      ---       ATH10IIC
      01000B70H   PUBLIC    CODE     ---       IIC_read_byte
      01000AFDH   PUBLIC    CODE     ---       _IIC_write_byte
      01000C86H   PUBLIC    CODE     ---       IIC_NACK
      01000C7FH   PUBLIC    CODE     ---       IIC_ACK
      01000C92H   PUBLIC    CODE     ---       IIC_Get_ack
      01000C6FH   PUBLIC    CODE     ---       IIC_stop
LX51 LINKER/LOCATER V4.66.97.0                                                        08/20/2022  23:17:42  PAGE 19


      01000C66H   PUBLIC    CODE     ---       IIC_start
      01000C8DH   PUBLIC    CODE     ---       IIC_Init
      00000080H   SFRSYM    DATA     BYTE      P0
      00000090H   SFRSYM    DATA     BYTE      P1
      000000A0H   SFRSYM    DATA     BYTE      P2
      000000B0H   SFRSYM    DATA     BYTE      P3
      000000B0H.4 SFRSYM    DATA     BIT       T0
      000000D0H.6 SFRSYM    DATA     BIT       AC
      000000B0H.5 SFRSYM    DATA     BIT       T1
      00000090H.0 SFRSYM    DATA     BIT       T2
      000000A8H.7 SFRSYM    DATA     BIT       EA
      000000A8H   SFRSYM    DATA     BYTE      IE
      00000090H.2 SFRSYM    DATA     BIT       IIC_SDA
      000000C8H.6 SFRSYM    DATA     BIT       EXF2
      000000B0H.7 SFRSYM    DATA     BIT       RD
      000000A8H.4 SFRSYM    DATA     BIT       ES
      00000090H.3 SFRSYM    DATA     BIT       IIC_SCL
      000000B8H   SFRSYM    DATA     BYTE      IP
      00000098H.0 SFRSYM    DATA     BIT       RI
      000000B0H.2 SFRSYM    DATA     BIT       INT0
      000000D0H.7 SFRSYM    DATA     BIT       CY
      00000098H.1 SFRSYM    DATA     BIT       TI
      000000B0H.3 SFRSYM    DATA     BIT       INT1
      000000CBH   SFRSYM    DATA     BYTE      RCAP2H
      000000B8H.4 SFRSYM    DATA     BIT       PS
      00000081H   SFRSYM    DATA     BYTE      SP
      00000090H.1 SFRSYM    DATA     BIT       T2EX
      000000D0H.2 SFRSYM    DATA     BIT       OV
      000000CAH   SFRSYM    DATA     BYTE      RCAP2L
      000000C8H.1 SFRSYM    DATA     BIT       C_T2
      000000B0H.6 SFRSYM    DATA     BIT       WR
      000000C8H.5 SFRSYM    DATA     BIT       RCLK
      000000C8H.4 SFRSYM    DATA     BIT       TCLK
      00000099H   SFRSYM    DATA     BYTE      SBUF
      00000087H   SFRSYM    DATA     BYTE      PCON
      00000098H   SFRSYM    DATA     BYTE      SCON
      00000089H   SFRSYM    DATA     BYTE      TMOD
      00000088H   SFRSYM    DATA     BYTE      TCON
      00000088H.1 SFRSYM    DATA     BIT       IE0
      00000088H.3 SFRSYM    DATA     BIT       IE1
      000000F0H   SFRSYM    DATA     BYTE      B
      000000C8H.0 SFRSYM    DATA     BIT       CP_RL2
      000000E0H   SFRSYM    DATA     BYTE      ACC
      000000A8H.1 SFRSYM    DATA     BIT       ET0
      000000A8H.3 SFRSYM    DATA     BIT       ET1
      00000088H.5 SFRSYM    DATA     BIT       TF0
      000000A8H.5 SFRSYM    DATA     BIT       ET2
      00000088H.7 SFRSYM    DATA     BIT       TF1
      000000C8H.7 SFRSYM    DATA     BIT       TF2
      00000098H.2 SFRSYM    DATA     BIT       RB8
      0000008CH   SFRSYM    DATA     BYTE      TH0
      000000A8H.0 SFRSYM    DATA     BIT       EX0
      00000088H.0 SFRSYM    DATA     BIT       IT0
      0000008DH   SFRSYM    DATA     BYTE      TH1
      00000098H.3 SFRSYM    DATA     BIT       TB8
      000000A8H.2 SFRSYM    DATA     BIT       EX1
      00000088H.2 SFRSYM    DATA     BIT       IT1
      000000CDH   SFRSYM    DATA     BYTE      TH2
      000000D0H.0 SFRSYM    DATA     BIT       P
      00000098H.7 SFRSYM    DATA     BIT       SM0
      0000008AH   SFRSYM    DATA     BYTE      TL0
      00000098H.6 SFRSYM    DATA     BIT       SM1
      0000008BH   SFRSYM    DATA     BYTE      TL1
      00000098H.5 SFRSYM    DATA     BIT       SM2
      000000CCH   SFRSYM    DATA     BYTE      TL2
LX51 LINKER/LOCATER V4.66.97.0                                                        08/20/2022  23:17:42  PAGE 20


      000000B8H.1 SFRSYM    DATA     BIT       PT0
      000000B8H.3 SFRSYM    DATA     BIT       PT1
      000000D0H.3 SFRSYM    DATA     BIT       RS0
      000000B8H.5 SFRSYM    DATA     BIT       PT2
      00000088H.4 SFRSYM    DATA     BIT       TR0
      000000D0H.4 SFRSYM    DATA     BIT       RS1
      00000088H.6 SFRSYM    DATA     BIT       TR1
      000000C8H.2 SFRSYM    DATA     BIT       TR2
      000000B8H.0 SFRSYM    DATA     BIT       PX0
      000000B8H.2 SFRSYM    DATA     BIT       PX1
      00000083H   SFRSYM    DATA     BYTE      DPH
      00000082H   SFRSYM    DATA     BYTE      DPL
      000000C8H.3 SFRSYM    DATA     BIT       EXEN2
      00000098H.4 SFRSYM    DATA     BIT       REN
      000000C8H   SFRSYM    DATA     BYTE      T2CON
      000000B0H.0 SFRSYM    DATA     BIT       RXD
      000000B0H.1 SFRSYM    DATA     BIT       TXD
      000000D0H.5 SFRSYM    DATA     BIT       F0
      000000D0H   SFRSYM    DATA     BYTE      PSW

      01000C8DH   BLOCK     CODE     ---       LVL=0
      01000C8DH   LINE      CODE     ---       #11
      01000C8DH   LINE      CODE     ---       #12
      01000C8DH   LINE      CODE     ---       #13
      01000C8FH   LINE      CODE     ---       #14
      01000C91H   LINE      CODE     ---       #16
      ---         BLOCKEND  ---      ---       LVL=0

      01000C66H   BLOCK     CODE     ---       LVL=0
      01000C66H   LINE      CODE     ---       #20
      01000C66H   LINE      CODE     ---       #21
      01000C66H   LINE      CODE     ---       #23
      01000C68H   LINE      CODE     ---       #24
      01000C6AH   LINE      CODE     ---       #25
      01000C6CH   LINE      CODE     ---       #26
      01000C6EH   LINE      CODE     ---       #28
      ---         BLOCKEND  ---      ---       LVL=0

      01000C6FH   BLOCK     CODE     ---       LVL=0
      01000C6FH   LINE      CODE     ---       #32
      01000C6FH   LINE      CODE     ---       #33
      01000C6FH   LINE      CODE     ---       #34
      01000C71H   LINE      CODE     ---       #35
      01000C73H   LINE      CODE     ---       #36
      01000C75H   LINE      CODE     ---       #37
      01000C77H   LINE      CODE     ---       #39
      ---         BLOCKEND  ---      ---       LVL=0

      01000C92H   BLOCK     CODE     ---       LVL=0
      01000C92H   LINE      CODE     ---       #43
      01000C92H   LINE      CODE     ---       #44
      01000C92H   LINE      CODE     ---       #45
      01000C94H   LINE      CODE     ---       #46
      01000C96H   LINE      CODE     ---       #47
      ---         BLOCKEND  ---      ---       LVL=0

      01000C7FH   BLOCK     CODE     ---       LVL=0
      01000C7FH   LINE      CODE     ---       #54
      01000C7FH   LINE      CODE     ---       #55
      01000C7FH   LINE      CODE     ---       #56
      01000C81H   LINE      CODE     ---       #57
      01000C83H   LINE      CODE     ---       #58
      01000C85H   LINE      CODE     ---       #59
      ---         BLOCKEND  ---      ---       LVL=0

LX51 LINKER/LOCATER V4.66.97.0                                                        08/20/2022  23:17:42  PAGE 21


      01000C86H   BLOCK     CODE     ---       LVL=0
      01000C86H   LINE      CODE     ---       #63
      01000C86H   LINE      CODE     ---       #64
      01000C86H   LINE      CODE     ---       #65
      01000C88H   LINE      CODE     ---       #66
      01000C8AH   LINE      CODE     ---       #67
      01000C8CH   LINE      CODE     ---       #69
      ---         BLOCKEND  ---      ---       LVL=0

      01000AFDH   BLOCK     CODE     ---       LVL=0
      00000007H   SYMBOL    DATA     BYTE      Data
      01000AFDH   BLOCK     CODE     NEAR LAB  LVL=1
      00000006H   SYMBOL    DATA     BYTE      i
      ---         BLOCKEND  ---      ---       LVL=1
      01000AFDH   LINE      CODE     ---       #74
      01000AFDH   LINE      CODE     ---       #75
      01000AFDH   LINE      CODE     ---       #78
      01000B09H   LINE      CODE     ---       #79
      01000B09H   LINE      CODE     ---       #80
      01000B10H   LINE      CODE     ---       #81
      01000B14H   LINE      CODE     ---       #83
      01000B16H   LINE      CODE     ---       #84
      01000B18H   LINE      CODE     ---       #85
      01000B1AH   LINE      CODE     ---       #86
      01000B1EH   LINE      CODE     ---       #87
      01000B21H   LINE      CODE     ---       #88
      01000B23H   LINE      CODE     ---       #90
      ---         BLOCKEND  ---      ---       LVL=0

      01000B70H   BLOCK     CODE     ---       LVL=0
      01000B70H   BLOCK     CODE     NEAR LAB  LVL=1
      00000006H   SYMBOL    DATA     BYTE      i
      00000007H   SYMBOL    DATA     BYTE      Data
      ---         BLOCKEND  ---      ---       LVL=1
      01000B70H   LINE      CODE     ---       #94
      01000B70H   LINE      CODE     ---       #95
      01000B70H   LINE      CODE     ---       #98
      01000B72H   LINE      CODE     ---       #99
      01000B74H   LINE      CODE     ---       #100
      01000B76H   LINE      CODE     ---       #101
      01000B81H   LINE      CODE     ---       #102
      01000B81H   LINE      CODE     ---       #103
      01000B85H   LINE      CODE     ---       #104
      01000B87H   LINE      CODE     ---       #105
      01000B8AH   LINE      CODE     ---       #106
      01000B8DH   LINE      CODE     ---       #107
      01000B8FH   LINE      CODE     ---       #108
      01000B92H   LINE      CODE     ---       #109
      01000B92H   LINE      CODE     ---       #111
      ---         BLOCKEND  ---      ---       LVL=0

      ---         MODULE    ---      ---       ?C?FPADD
      0100000AH   PUBLIC    CODE     ---       ?C?FPADD
      01000006H   PUBLIC    CODE     ---       ?C?FPSUB

      ---         MODULE    ---      ---       ?C?FPMUL
      010000FBH   PUBLIC    CODE     ---       ?C?FPMUL

      ---         MODULE    ---      ---       ?C?FPDIV
      01000204H   PUBLIC    CODE     ---       ?C?FPDIV

      ---         MODULE    ---      ---       ?C?FCAST
      010002ABH   PUBLIC    CODE     ---       ?C?FCASTC
      010002A6H   PUBLIC    CODE     ---       ?C?FCASTI
      010002A1H   PUBLIC    CODE     ---       ?C?FCASTL
LX51 LINKER/LOCATER V4.66.97.0                                                        08/20/2022  23:17:42  PAGE 22



      ---         MODULE    ---      ---       ?C?CASTF
      010002DFH   PUBLIC    CODE     ---       ?C?CASTF

      ---         MODULE    ---      ---       ?C?FPGETOPN
      01000316H   PUBLIC    CODE     ---       ?C?FPGETOPN2
      0100034BH   PUBLIC    CODE     ---       ?C?FPNANRESULT
      01000355H   PUBLIC    CODE     ---       ?C?FPOVERFLOW
      0100032DH   PUBLIC    CODE     ---       ?C?FPRESULT
      01000341H   PUBLIC    CODE     ---       ?C?FPRESULT2
      01000352H   PUBLIC    CODE     ---       ?C?FPUNDERFLOW

      ---         MODULE    ---      ---       ?C_STARTUP
      01000000H   PUBLIC    CODE     ---       ?C_STARTUP

      ---         MODULE    ---      ---       ?C?COPY
      01000430H   PUBLIC    CODE     ---       ?C?COPY

      ---         MODULE    ---      ---       ?C?CLDOPTR
      01000456H   PUBLIC    CODE     ---       ?C?CLDOPTR

      ---         MODULE    ---      ---       ?C?IMUL
      01000483H   PUBLIC    CODE     ---       ?C?IMUL

      ---         MODULE    ---      ---       ?C?UIDIV
      01000495H   PUBLIC    CODE     ---       ?C?UIDIV

      ---         MODULE    ---      ---       ?C?ISTPTR
      010004EAH   PUBLIC    CODE     ---       ?C?ISTPTR

      ---         MODULE    ---      ---       ?C?LNEG
      01000509H   PUBLIC    CODE     ---       ?C?LNEG

      ---         MODULE    ---      ---       ?C?ULSHR
      01000517H   PUBLIC    CODE     ---       ?C?ULSHR

      ---         MODULE    ---      ---       ?C?LSHL
      0100052AH   PUBLIC    CODE     ---       ?C?LSHL

Program Size: data=31.0 xdata=0 const=2544 code=3223
LX51 RUN COMPLETE.  0 WARNING(S),  0 ERROR(S)
