BL51 BANKED LINKER/LOCATER V6.22.2.0                                                    07/02/2022  18:10:00  PAGE 1


BL51 BANKED LINKER/LOCATER V6.22.2.0, INVOKED BY:
C:\KEIL_V5\C51\BIN\BL51.EXE .\Objects\main.obj, .\Objects\delay.obj, .\Objects\oled.obj TO .\Objects\MCUdesign PRINT (.\
>> Listings\MCUdesign.m51) RAMSIZE (256)


MEMORY MODEL: SMALL


INPUT MODULES INCLUDED:
  .\Objects\main.obj (MAIN)
  .\Objects\delay.obj (DELAY)
  .\Objects\oled.obj (OLED)
  C:\KEIL_V5\C51\LIB\C51S.LIB (?C_STARTUP)
  C:\KEIL_V5\C51\LIB\C51S.LIB (?C?CLDOPTR)
  C:\KEIL_V5\C51\LIB\C51S.LIB (?C?IMUL)
  C:\KEIL_V5\C51\LIB\C51S.LIB (?C?UIDIV)


LINK MAP OF MODULE:  .\Objects\MCUdesign (MAIN)


            TYPE    BASE      LENGTH    RELOCATION   SEGMENT NAME
            -----------------------------------------------------

            * * * * * * *   D A T A   M E M O R Y   * * * * * * *
            REG     0000H     0008H     ABSOLUTE     "REG BANK 0"
            DATA    0008H     000EH     UNIT         _DATA_GROUP_
            DATA    0016H     000BH     UNIT         ?DT?_OLED_DRAWBMP?OLED
            DATA    0021H     0004H     UNIT         ?DT?_OLED_SHOWCHINESE?OLED
            DATA    0025H     0002H     UNIT         ?DT?_FILL_PICTURE?OLED
            DATA    0027H     0001H     UNIT         ?DT?OLED_ON?OLED
            IDATA   0028H     0001H     UNIT         ?STACK

            * * * * * * *   C O D E   M E M O R Y   * * * * * * *
            CODE    0000H     0003H     ABSOLUTE     
            CODE    0003H     09D8H     UNIT         ?CO?OLED
            CODE    09DBH     00E0H     UNIT         ?PR?OLED_INIT?OLED
            CODE    0ABBH     00DBH     UNIT         ?PR?_OLED_SHOWCHAR?OLED
            CODE    0B96H     0094H     UNIT         ?C?LIB_CODE
            CODE    0C2AH     0084H     UNIT         ?PR?_OLED_SHOWCHINESE?OLED
            CODE    0CAEH     007AH     UNIT         ?PR?_OLED_SHOWNUM?OLED
            CODE    0D28H     0069H     UNIT         ?PR?_OLED_DRAWBMP?OLED
            CODE    0D91H     005AH     UNIT         ?PR?MAIN?MAIN
            CODE    0DEBH     0044H     UNIT         ?PR?_OLED_SHOWSTRING?OLED
            CODE    0E2FH     0035H     UNIT         ?PR?_FILL_PICTURE?OLED
            CODE    0E64H     0033H     UNIT         ?PR?OLED_ON?OLED
            CODE    0E97H     0032H     UNIT         ?PR?OLED_CLEAR?OLED
            CODE    0EC9H     0031H     UNIT         ?PR?_WRITE_IIC_BYTE?OLED
            CODE    0EFAH     002CH     UNIT         ?PR?_OLED_WR_BYTE?OLED
            CODE    0F26H     002CH     UNIT         ?PR?_OLED_SET_POS?OLED
            CODE    0F52H     002BH     UNIT         ?PR?_DELAYXS?DELAY
            CODE    0F7DH     001EH     UNIT         ?PR?_DELAY_50MS?OLED
            CODE    0F9BH     001AH     UNIT         ?PR?_DELAY_MS?OLED
            CODE    0FB5H     001AH     UNIT         ?PR?_DELAY_1MS?OLED
            CODE    0FCFH     0018H     UNIT         ?PR?_OLED_POW?OLED
            CODE    0FE7H     0017H     UNIT         ?PR?OLED_DISPLAY_ON?OLED
            CODE    0FFEH     0011H     UNIT         ?PR?OLED_DISPLAY_OFF?OLED
            CODE    100FH     0010H     UNIT         ?PR?IIC_WAIT_ACK?OLED
BL51 BANKED LINKER/LOCATER V6.22.2.0                                                  07/02/2022  18:10:00  PAGE 2


            CODE    101FH     000EH     UNIT         ?PR?_WRITE_IIC_COMMAND?OLED
            CODE    102DH     000EH     UNIT         ?PR?_WRITE_IIC_DATA?OLED
            CODE    103BH     000CH     UNIT         ?C_C51STARTUP
            CODE    1047H     000AH     UNIT         ?CO?MAIN
            CODE    1051H     0009H     UNIT         ?PR?DELAY10MS?DELAY
            CODE    105AH     0009H     UNIT         ?PR?IIC_START?OLED
            CODE    1063H     0007H     UNIT         ?PR?IIC_STOP?OLED



OVERLAY MAP OF MODULE:   .\Objects\MCUdesign (MAIN)


SEGMENT                               DATA_GROUP 
  +--> CALLED SEGMENT               START    LENGTH
---------------------------------------------------
?C_C51STARTUP                       -----    -----
  +--> ?PR?MAIN?MAIN

?PR?MAIN?MAIN                       -----    -----
  +--> ?PR?OLED_INIT?OLED
  +--> ?PR?OLED_CLEAR?OLED
  +--> ?CO?MAIN
  +--> ?PR?_OLED_SHOWSTRING?OLED
  +--> ?PR?_OLED_SHOWNUM?OLED

?PR?OLED_INIT?OLED                  -----    -----
  +--> ?PR?_OLED_WR_BYTE?OLED

?PR?_OLED_WR_BYTE?OLED              -----    -----
  +--> ?PR?_WRITE_IIC_DATA?OLED
  +--> ?PR?_WRITE_IIC_COMMAND?OLED

?PR?_WRITE_IIC_DATA?OLED            -----    -----
  +--> ?PR?_WRITE_IIC_BYTE?OLED
  +--> ?PR?IIC_WAIT_ACK?OLED
  +--> ?PR?IIC_STOP?OLED

?PR?_WRITE_IIC_BYTE?OLED            -----    -----
  +--> ?PR?IIC_START?OLED

?PR?IIC_WAIT_ACK?OLED               -----    -----
  +--> ?PR?_WRITE_IIC_BYTE?OLED

?PR?_WRITE_IIC_COMMAND?OLED         -----    -----
  +--> ?PR?_WRITE_IIC_BYTE?OLED
  +--> ?PR?IIC_WAIT_ACK?OLED
  +--> ?PR?IIC_STOP?OLED

?PR?OLED_CLEAR?OLED                 0008H    0001H
  +--> ?PR?_OLED_WR_BYTE?OLED

?PR?_OLED_SHOWSTRING?OLED           0008H    0007H
  +--> ?PR?_OLED_SHOWCHAR?OLED

?PR?_OLED_SHOWCHAR?OLED             0011H    0005H
  +--> ?PR?_OLED_SET_POS?OLED
BL51 BANKED LINKER/LOCATER V6.22.2.0                                                  07/02/2022  18:10:00  PAGE 3


  +--> ?CO?OLED
  +--> ?PR?_OLED_WR_BYTE?OLED

?PR?_OLED_SET_POS?OLED              -----    -----
  +--> ?PR?_OLED_WR_BYTE?OLED

?PR?_OLED_SHOWNUM?OLED              0008H    0009H
  +--> ?PR?_OLED_POW?OLED
  +--> ?PR?_OLED_SHOWCHAR?OLED

?PR?_OLED_POW?OLED                  0011H    0001H



SYMBOL TABLE OF MODULE:  .\Objects\MCUdesign (MAIN)

  VALUE           TYPE          NAME
  ----------------------------------

  -------         MODULE        MAIN
  C:0000H         SYMBOL        _ICE_DUMMY_
  D:0090H         PUBLIC        P1
  D:00A0H         PUBLIC        P2
  D:00B0H         PUBLIC        P3
  D:00A8H         PUBLIC        IE
  D:00B8H         PUBLIC        IP
  C:0D91H         PUBLIC        main
  D:0098H         PUBLIC        SCON
  D:0088H         PUBLIC        TCON
  D:00C8H         PUBLIC        T2CON
  D:00D0H         PUBLIC        PSW
  -------         PROC          MAIN
  C:0D91H         LINE#         7
  C:0D91H         LINE#         12
  C:0D94H         LINE#         13
  C:0D97H         LINE#         15
  C:0D97H         LINE#         16
  C:0D97H         LINE#         18
  C:0DA7H         LINE#         20
  C:0DB8H         LINE#         22
  C:0DC8H         LINE#         24
  C:0DD9H         LINE#         26
  C:0DE9H         LINE#         29
  -------         ENDPROC       MAIN
  -------         ENDMOD        MAIN

  -------         MODULE        DELAY
  C:0000H         SYMBOL        _ICE_DUMMY_
  C:1051H         PUBLIC        Delay10ms
  C:0F52H         PUBLIC        _Delayxs
  -------         PROC          DELAY10MS
  -------         DO            
  D:0007H         SYMBOL        i
  D:0006H         SYMBOL        j
  -------         ENDDO         
  C:1051H         LINE#         7
  C:1051H         LINE#         8
BL51 BANKED LINKER/LOCATER V6.22.2.0                                                  07/02/2022  18:10:00  PAGE 4


  C:1051H         LINE#         11
  C:1053H         LINE#         12
  C:1055H         LINE#         14
  C:1055H         LINE#         15
  C:1057H         LINE#         16
  C:1059H         LINE#         17
  -------         ENDPROC       DELAY10MS
  -------         PROC          _DELAYXS
  D:0004H         SYMBOL        xs
  -------         DO            
  D:0002H         SYMBOL        i
  D:0082H         SYMBOL        j
  -------         ENDDO         
  C:0F52H         LINE#         25
  C:0F56H         LINE#         26
  C:0F56H         LINE#         27
  C:0F5DH         LINE#         28
  C:0F64H         LINE#         30
  C:0F69H         LINE#         31
  C:0F6CH         LINE#         32
  C:0F75H         LINE#         33
  C:0F7CH         LINE#         35
  -------         ENDPROC       _DELAYXS
  -------         ENDMOD        DELAY

  -------         MODULE        OLED
  C:0000H         SYMBOL        _ICE_DUMMY_
  C:0FE7H         PUBLIC        OLED_Display_On
  D:0090H         PUBLIC        P1
  D:00B0H         PUBLIC        P3
  C:0E2FH         PUBLIC        _fill_picture
  D:00A8H         PUBLIC        IE
  C:0F7DH         PUBLIC        _Delay_50ms
  D:00B8H         PUBLIC        IP
  C:09DBH         PUBLIC        OLED_Init
  C:102DH         PUBLIC        _Write_IIC_Data
  C:0DEBH         PUBLIC        _OLED_ShowString
  C:0F15H         PUBLIC        _OLED_WR_Byte
  C:0ABBH         PUBLIC        _OLED_ShowChar
  C:0003H         PUBLIC        F6x8
  C:081BH         PUBLIC        Hzk
  D:0098H         PUBLIC        SCON
  B:0090H.1       PUBLIC        OLED_SDIN
  D:0088H         PUBLIC        TCON
  C:0ED0H         PUBLIC        _Write_IIC_Byte
  C:022BH         PUBLIC        F8X16
  C:101AH         PUBLIC        IIC_Wait_Ack
  C:0E64H         PUBLIC        OLED_On
  C:105AH         PUBLIC        IIC_Start
  C:0F26H         PUBLIC        _OLED_Set_Pos
  C:0C2AH         PUBLIC        _OLED_ShowCHinese
  C:0F9BH         PUBLIC        _delay_ms
  C:0CAEH         PUBLIC        _OLED_ShowNum
  C:0FFEH         PUBLIC        OLED_Display_Off
  C:0FCFH         PUBLIC        _oled_pow
  C:1063H         PUBLIC        IIC_Stop
  C:0FB5H         PUBLIC        _Delay_1ms
BL51 BANKED LINKER/LOCATER V6.22.2.0                                                  07/02/2022  18:10:00  PAGE 5


  D:00C8H         PUBLIC        T2CON
  C:101FH         PUBLIC        _Write_IIC_Command
  B:0090H.0       PUBLIC        OLED_SCL
  C:0E97H         PUBLIC        OLED_Clear
  C:0D28H         PUBLIC        _OLED_DrawBMP
  D:00D0H         PUBLIC        PSW
  -------         PROC          _DELAY_MS
  D:0006H         SYMBOL        ms
  -------         DO            
  D:0004H         SYMBOL        a
  -------         ENDDO         
  C:0F9BH         LINE#         46
  C:0F9BH         LINE#         47
  C:0F9BH         LINE#         49
  C:0F9FH         LINE#         50
  C:0F9FH         LINE#         51
  C:0FA3H         LINE#         52
  C:0FADH         LINE#         53
  C:0FB2H         LINE#         54
  C:0FB4H         LINE#         56
  -------         ENDPROC       _DELAY_MS
  -------         PROC          IIC_START
  C:105AH         LINE#         64
  C:105AH         LINE#         65
  C:105AH         LINE#         67
  C:105CH         LINE#         68
  C:105EH         LINE#         69
  C:1060H         LINE#         70
  C:1062H         LINE#         71
  -------         ENDPROC       IIC_START
  -------         PROC          IIC_STOP
  C:1063H         LINE#         79
  C:1063H         LINE#         80
  C:1063H         LINE#         81
  C:1065H         LINE#         83
  C:1067H         LINE#         84
  C:1069H         LINE#         86
  -------         ENDPROC       IIC_STOP
  -------         PROC          L?0113
  -------         ENDPROC       L?0113
  -------         PROC          IIC_WAIT_ACK
  C:101AH         LINE#         88
  C:101AH         LINE#         89
  C:101AH         LINE#         107
  C:101CH         LINE#         108
  C:101EH         LINE#         109
  -------         ENDPROC       IIC_WAIT_ACK
  -------         PROC          L?0114
  -------         ENDPROC       L?0114
  -------         PROC          _WRITE_IIC_BYTE
  D:0007H         SYMBOL        IIC_Byte
  -------         DO            
  D:0006H         SYMBOL        i
  D:0005H         SYMBOL        m
  D:0007H         SYMBOL        da
  -------         ENDDO         
  C:0ED0H         LINE#         118
BL51 BANKED LINKER/LOCATER V6.22.2.0                                                  07/02/2022  18:10:00  PAGE 6


  C:0ED0H         LINE#         119
  C:0ED0H         LINE#         122
  C:0ED0H         LINE#         123
  C:0ED2H         LINE#         124
  C:0EDEH         LINE#         125
  C:0EDEH         LINE#         126
  C:0EE0H         LINE#         128
  C:0EE3H         LINE#         129
  C:0EE8H         LINE#         130
  C:0EECH         LINE#         131
  C:0EEEH         LINE#         132
  C:0EF2H         LINE#         133
  C:0EF4H         LINE#         134
  C:0EF6H         LINE#         135
  C:0EF9H         LINE#         138
  -------         ENDPROC       _WRITE_IIC_BYTE
  -------         PROC          _WRITE_IIC_COMMAND
  D:0004H         SYMBOL        IIC_Command
  C:101FH         LINE#         148
  C:101FH         LINE#         149
  C:101FH         LINE#         150
  C:101FH         LINE#         151
  C:1022H         LINE#         152
  C:1025H         LINE#         153
  C:1027H         LINE#         154
  C:1027H         LINE#         155
  C:1027H         LINE#         156
  C:102AH         LINE#         157
  -------         ENDPROC       _WRITE_IIC_COMMAND
  -------         PROC          _WRITE_IIC_DATA
  D:0004H         SYMBOL        IIC_Data
  C:102DH         LINE#         168
  C:102DH         LINE#         169
  C:102DH         LINE#         170
  C:102DH         LINE#         171
  C:1030H         LINE#         172
  C:1033H         LINE#         173
  C:1035H         LINE#         174
  C:1035H         LINE#         175
  C:1035H         LINE#         176
  C:1038H         LINE#         177
  -------         ENDPROC       _WRITE_IIC_DATA
  C:0EFAH         SYMBOL        L?0109
  C:0F04H         SYMBOL        L?0110
  C:0F0BH         SYMBOL        L?0111
  C:0F11H         SYMBOL        L?0112
  -------         PROC          L?0108
  -------         ENDPROC       L?0108
  C:0EFAH         SYMBOL        L?0109
  C:0F04H         SYMBOL        L?0110
  C:0F0BH         SYMBOL        L?0111
  C:0F11H         SYMBOL        L?0112
  -------         PROC          _OLED_WR_BYTE
  D:0002H         SYMBOL        dat
  D:0004H         SYMBOL        cmd
  C:0F15H         LINE#         182
  C:0F19H         LINE#         183
BL51 BANKED LINKER/LOCATER V6.22.2.0                                                  07/02/2022  18:10:00  PAGE 7


  C:0F19H         LINE#         184
  C:0F1DH         LINE#         186
  C:0F20H         LINE#         187
  C:0F20H         LINE#         188
  C:0F20H         LINE#         189
  C:0F25H         LINE#         191
  C:0F25H         LINE#         193
  -------         ENDPROC       _OLED_WR_BYTE
  -------         PROC          _FILL_PICTURE
  D:0025H         SYMBOL        fill_Data
  -------         DO            
  D:0001H         SYMBOL        m
  D:0026H         SYMBOL        n
  -------         ENDDO         
  C:0E2FH         LINE#         202
  C:0E31H         LINE#         203
  C:0E31H         LINE#         205
  C:0E40H         LINE#         206
  C:0E40H         LINE#         207
  C:0E40H         LINE#         208
  C:0E40H         LINE#         209
  C:0E43H         LINE#         210
  C:0E51H         LINE#         211
  C:0E51H         LINE#         212
  C:0E5CH         LINE#         213
  C:0E60H         LINE#         214
  C:0E63H         LINE#         215
  -------         ENDPROC       _FILL_PICTURE
  -------         PROC          _DELAY_50MS
  D:0006H         SYMBOL        Del_50ms
  -------         DO            
  D:0004H         SYMBOL        m
  -------         ENDDO         
  C:0F7DH         LINE#         224
  C:0F7DH         LINE#         225
  C:0F7DH         LINE#         227
  C:0F86H         LINE#         228
  C:0F9AH         LINE#         229
  -------         ENDPROC       _DELAY_50MS
  -------         PROC          _DELAY_1MS
  D:0006H         SYMBOL        Del_1ms
  -------         DO            
  D:0005H         SYMBOL        j
  -------         ENDDO         
  C:0FB5H         LINE#         234
  C:0FB5H         LINE#         235
  C:0FB5H         LINE#         237
  C:0FBFH         LINE#         238
  C:0FBFH         LINE#         239
  C:0FCEH         LINE#         240
  C:0FCEH         LINE#         241
  -------         ENDPROC       _DELAY_1MS
  -------         PROC          _OLED_SET_POS
  D:0001H         SYMBOL        x
  D:0005H         SYMBOL        y
  C:0F26H         LINE#         245
  C:0F28H         LINE#         246
BL51 BANKED LINKER/LOCATER V6.22.2.0                                                  07/02/2022  18:10:00  PAGE 8


  C:0F35H         LINE#         247
  C:0F46H         LINE#         248
  -------         ENDPROC       _OLED_SET_POS
  -------         PROC          OLED_DISPLAY_ON
  C:0FE7H         LINE#         253
  C:0FE7H         LINE#         254
  C:0FE7H         LINE#         255
  C:0FECH         LINE#         256
  C:0FF5H         LINE#         257
  -------         ENDPROC       OLED_DISPLAY_ON
  -------         PROC          OLED_DISPLAY_OFF
  C:0FFEH         LINE#         262
  C:0FFEH         LINE#         263
  C:0FFEH         LINE#         264
  C:1003H         LINE#         265
  C:1006H         LINE#         266
  -------         ENDPROC       OLED_DISPLAY_OFF
  -------         PROC          OLED_CLEAR
  -------         DO            
  D:0001H         SYMBOL        i
  D:0008H         SYMBOL        n
  -------         ENDDO         
  C:0E97H         LINE#         271
  C:0E97H         LINE#         272
  C:0E97H         LINE#         274
  C:0EA6H         LINE#         275
  C:0EA6H         LINE#         276
  C:0EA6H         LINE#         277
  C:0EA6H         LINE#         278
  C:0EA9H         LINE#         279
  C:0EC5H         LINE#         280
  C:0EC8H         LINE#         281
  -------         ENDPROC       OLED_CLEAR
  -------         PROC          OLED_ON
  -------         DO            
  D:0001H         SYMBOL        i
  D:0027H         SYMBOL        n
  -------         ENDDO         
  C:0E64H         LINE#         284
  C:0E64H         LINE#         285
  C:0E64H         LINE#         287
  C:0E73H         LINE#         288
  C:0E73H         LINE#         289
  C:0E73H         LINE#         290
  C:0E73H         LINE#         291
  C:0E76H         LINE#         292
  C:0E93H         LINE#         293
  C:0E96H         LINE#         294
  -------         ENDPROC       OLED_ON
  -------         PROC          _OLED_SHOWCHAR
  D:0011H         SYMBOL        x
  D:0012H         SYMBOL        y
  D:0003H         SYMBOL        chr
  D:0014H         SYMBOL        Char_Size
  -------         DO            
  D:0015H         SYMBOL        c
  D:0001H         SYMBOL        i
BL51 BANKED LINKER/LOCATER V6.22.2.0                                                  07/02/2022  18:10:00  PAGE 9


  -------         ENDDO         
  C:0ABBH         LINE#         302
  C:0ABFH         LINE#         303
  C:0ABFH         LINE#         304
  C:0AC3H         LINE#         305
  C:0AC8H         LINE#         306
  C:0AD2H         LINE#         307
  C:0AD9H         LINE#         308
  C:0AD9H         LINE#         309
  C:0ADFH         LINE#         311
  C:0AE6H         LINE#         312
  C:0AF2H         LINE#         313
  C:0B1BH         LINE#         314
  C:0B24H         LINE#         315
  C:0B30H         LINE#         316
  C:0B59H         LINE#         318
  C:0B59H         LINE#         320
  C:0B60H         LINE#         321
  C:0B6CH         LINE#         323
  C:0B92H         LINE#         324
  C:0B95H         LINE#         326
  C:0B95H         LINE#         327
  -------         ENDPROC       _OLED_SHOWCHAR
  -------         PROC          _OLED_POW
  D:0011H         SYMBOL        m
  D:0001H         SYMBOL        n
  -------         DO            
  D:0006H         SYMBOL        result
  -------         ENDDO         
  C:0FCFH         LINE#         332
  C:0FD3H         LINE#         333
  C:0FD3H         LINE#         334
  C:0FD7H         LINE#         335
  C:0FE6H         LINE#         336
  C:0FE6H         LINE#         337
  -------         ENDPROC       _OLED_POW
  -------         PROC          _OLED_SHOWNUM
  D:0008H         SYMBOL        x
  D:0009H         SYMBOL        y
  D:000AH         SYMBOL        num
  D:000CH         SYMBOL        len
  D:000DH         SYMBOL        size2
  -------         DO            
  D:000EH         SYMBOL        t
  D:000FH         SYMBOL        temp
  D:0010H         SYMBOL        enshow
  -------         ENDDO         
  C:0CAEH         LINE#         347
  C:0CB6H         LINE#         348
  C:0CB6H         LINE#         350
  C:0CB9H         LINE#         351
  C:0CC2H         LINE#         352
  C:0CC2H         LINE#         353
  C:0CE4H         LINE#         354
  C:0CF2H         LINE#         355
  C:0CF2H         LINE#         356
  C:0CF6H         LINE#         357
BL51 BANKED LINKER/LOCATER V6.22.2.0                                                  07/02/2022  18:10:00  PAGE 10


  C:0CF6H         LINE#         358
  C:0D06H         LINE#         359
  C:0D08H         LINE#         360
  C:0D0BH         LINE#         362
  C:0D0BH         LINE#         363
  C:0D23H         LINE#         364
  C:0D27H         LINE#         365
  -------         ENDPROC       _OLED_SHOWNUM
  -------         PROC          _OLED_SHOWSTRING
  D:0008H         SYMBOL        x
  D:0009H         SYMBOL        y
  D:000AH         SYMBOL        chr
  D:000DH         SYMBOL        Char_Size
  -------         DO            
  D:000EH         SYMBOL        j
  -------         ENDDO         
  C:0DEBH         LINE#         369
  C:0DF5H         LINE#         370
  C:0DF5H         LINE#         371
  C:0DF8H         LINE#         372
  C:0E0AH         LINE#         373
  C:0E0AH         LINE#         374
  C:0E14H         LINE#         375
  C:0E1AH         LINE#         376
  C:0E23H         LINE#         377
  C:0E2AH         LINE#         378
  C:0E2AH         LINE#         379
  C:0E2CH         LINE#         380
  C:0E2EH         LINE#         381
  -------         ENDPROC       _OLED_SHOWSTRING
  -------         PROC          _OLED_SHOWCHINESE
  D:0021H         SYMBOL        x
  D:0022H         SYMBOL        y
  D:0023H         SYMBOL        no
  -------         DO            
  D:0001H         SYMBOL        t
  D:0024H         SYMBOL        adder
  -------         ENDDO         
  C:0C2AH         LINE#         385
  C:0C30H         LINE#         386
  C:0C30H         LINE#         387
  C:0C33H         LINE#         388
  C:0C36H         LINE#         389
  C:0C42H         LINE#         391
  C:0C68H         LINE#         392
  C:0C6AH         LINE#         393
  C:0C6DH         LINE#         395
  C:0C76H         LINE#         396
  C:0C82H         LINE#         398
  C:0CA8H         LINE#         399
  C:0CAAH         LINE#         400
  C:0CADH         LINE#         401
  -------         ENDPROC       _OLED_SHOWCHINESE
  -------         PROC          _OLED_DRAWBMP
  D:0016H         SYMBOL        x0
  D:0005H         SYMBOL        y0
  D:0018H         SYMBOL        x1
BL51 BANKED LINKER/LOCATER V6.22.2.0                                                  07/02/2022  18:10:00  PAGE 11


  D:0019H         SYMBOL        y1
  D:001AH         SYMBOL        BMP
  -------         DO            
  D:001DH         SYMBOL        j
  D:001FH         SYMBOL        x
  D:0020H         SYMBOL        y
  -------         ENDDO         
  C:0D28H         LINE#         405
  C:0D2CH         LINE#         406
  C:0D2CH         LINE#         407
  C:0D31H         LINE#         410
  C:0D42H         LINE#         411
  C:0D4CH         LINE#         412
  C:0D55H         LINE#         413
  C:0D55H         LINE#         414
  C:0D5CH         LINE#         415
  C:0D66H         LINE#         417
  C:0D88H         LINE#         418
  C:0D8CH         LINE#         419
  C:0D90H         LINE#         420
  -------         ENDPROC       _OLED_DRAWBMP
  -------         PROC          OLED_INIT
  C:09DBH         LINE#         425
  C:09DBH         LINE#         426
  C:09DBH         LINE#         428
  C:09E1H         LINE#         429
  C:09E1H         LINE#         430
  C:09E4H         LINE#         431
  C:09EDH         LINE#         432
  C:09F6H         LINE#         433
  C:09FFH         LINE#         434
  C:0A08H         LINE#         435
  C:0A11H         LINE#         436
  C:0A1AH         LINE#         437
  C:0A23H         LINE#         438
  C:0A2CH         LINE#         439
  C:0A35H         LINE#         440
  C:0A3EH         LINE#         441
  C:0A46H         LINE#         443
  C:0A4FH         LINE#         444
  C:0A58H         LINE#         446
  C:0A61H         LINE#         447
  C:0A6AH         LINE#         449
  C:0A73H         LINE#         450
  C:0A7CH         LINE#         452
  C:0A85H         LINE#         453
  C:0A8EH         LINE#         455
  C:0A97H         LINE#         456
  C:0AA0H         LINE#         458
  C:0AA9H         LINE#         459
  C:0AB2H         LINE#         461
  -------         ENDPROC       OLED_INIT
  -------         ENDMOD        OLED

  -------         MODULE        ?C?CLDOPTR
  C:0B96H         PUBLIC        ?C?CLDOPTR
  -------         ENDMOD        ?C?CLDOPTR
BL51 BANKED LINKER/LOCATER V6.22.2.0                                                  07/02/2022  18:10:00  PAGE 12



  -------         MODULE        ?C?IMUL
  C:0BC3H         PUBLIC        ?C?IMUL
  -------         ENDMOD        ?C?IMUL

  -------         MODULE        ?C?UIDIV
  C:0BD5H         PUBLIC        ?C?UIDIV
  -------         ENDMOD        ?C?UIDIV

*** WARNING L16: UNCALLED SEGMENT, IGNORED FOR OVERLAY PROCESS
    SEGMENT: ?PR?_DELAYXS?DELAY

*** WARNING L16: UNCALLED SEGMENT, IGNORED FOR OVERLAY PROCESS
    SEGMENT: ?PR?_DELAY_MS?OLED

*** WARNING L16: UNCALLED SEGMENT, IGNORED FOR OVERLAY PROCESS
    SEGMENT: ?PR?_FILL_PICTURE?OLED

*** WARNING L16: UNCALLED SEGMENT, IGNORED FOR OVERLAY PROCESS
    SEGMENT: ?PR?_DELAY_50MS?OLED

*** WARNING L16: UNCALLED SEGMENT, IGNORED FOR OVERLAY PROCESS
    SEGMENT: ?PR?_DELAY_1MS?OLED

*** WARNING L16: UNCALLED SEGMENT, IGNORED FOR OVERLAY PROCESS
    SEGMENT: ?PR?OLED_DISPLAY_ON?OLED

*** WARNING L16: UNCALLED SEGMENT, IGNORED FOR OVERLAY PROCESS
    SEGMENT: ?PR?OLED_DISPLAY_OFF?OLED

*** WARNING L16: UNCALLED SEGMENT, IGNORED FOR OVERLAY PROCESS
    SEGMENT: ?PR?OLED_ON?OLED

*** WARNING L16: UNCALLED SEGMENT, IGNORED FOR OVERLAY PROCESS
    SEGMENT: ?PR?_OLED_SHOWCHINESE?OLED

*** WARNING L16: UNCALLED SEGMENT, IGNORED FOR OVERLAY PROCESS
    SEGMENT: ?PR?_OLED_DRAWBMP?OLED

Program Size: data=41.0 xdata=0 code=4202
LINK/LOCATE RUN COMPLETE.  10 WARNING(S),  0 ERROR(S)
