C51 COMPILER V9.60.0.0   OLED                                                              08/20/2022 23:17:42 PAGE 1   


C51 COMPILER V9.60.0.0, COMPILATION OF MODULE OLED
OBJECT MODULE PLACED IN .\Objects\oled.obj
COMPILER INVOKED BY: C:\Keil_v5\C51\BIN\C51.EXE DRIVE\SOURCE\oled.c OMF2 OPTIMIZE(8,SPEED) BROWSE INCDIR(.\USER;.\DRIVE\
                    -INCLUDE;.\DRIVE\SOURCE;.\MCS51-CORE) DEBUG PRINT(.\Listings\oled.lst) TABS(2) OBJECT(.\Objects\oled.obj)

line level    source

   1          /**
   2           * @file oled.c
   3           * @author WLS
   4           * @brief  OLED I2C协议接口 演示例程(STC89C52/51)
   5           *      
   6           *      ------------------------------------
   7           *        GND    电源地
   8           *        VCC  接5V或3.3v电源
   9           *        SCL   P1^0
  10           *        SDA   P1^1
  11           *      -------------------------------------
  12           * 
  13           * @version V1.0
  14           * @date 2022-07-02
  15           * 
  16           * @copyright Copyright (c) 2022
  17           * 
  18           * 
  19           * example:
  20           * 
  21           */
  22          
  23          
  24          #include "oled.h"
  25          #include "oledfont.h"  
  26          
  27          
  28          
  29          
  30          //OLED的显存
  31          //存放格式如下.
  32          //[0]0 1 2 3 ... 127  
  33          //[1]0 1 2 3 ... 127  
  34          //[2]0 1 2 3 ... 127  
  35          //[3]0 1 2 3 ... 127  
  36          //[4]0 1 2 3 ... 127  
  37          //[5]0 1 2 3 ... 127  
  38          //[6]0 1 2 3 ... 127  
  39          //[7]0 1 2 3 ... 127  
  40          
  41          /**
  42           * @brief 延时函数
  43           * 
  44           * @param ms ms毫秒
  45           */
  46          static void delay_ms(unsigned int ms)
  47          {                         
  48   1        unsigned int a;
  49   1        while(ms)
  50   1        {
  51   2          a=1800;
  52   2          while(a--);
  53   2          ms--;
  54   2        }
C51 COMPILER V9.60.0.0   OLED                                                              08/20/2022 23:17:42 PAGE 2   

  55   1        return;
  56   1      }
  57          
  58          
  59          
  60          /**
  61           * @brief IIC Start
  62           * 
  63           */
  64          static void IIC_Start()
  65          {
  66   1      
  67   1        OLED_SCLK_Set();
  68   1        OLED_SDIN_Set();
  69   1        OLED_SDIN_Clr();
  70   1        OLED_SCLK_Clr();
  71   1      }
  72          
  73          
  74          
  75          /**
  76           * @brief IIC Stop
  77           * 
  78           */
  79          static void IIC_Stop()
  80          {
  81   1      OLED_SCLK_Set() ;
  82   1      //  OLED_SCLK_Clr();
  83   1        OLED_SDIN_Clr();
  84   1        OLED_SDIN_Set();
  85   1        
  86   1      }
  87          
  88          static void IIC_Wait_Ack()
  89          {
  90   1      
  91   1        //GPIOB->CRH &= 0XFFF0FFFF; //设置PB12为上拉输入模式
  92   1        //GPIOB->CRH |= 0x00080000;
  93   1      //  OLED_SDA = 1;
  94   1      //  delay_us(1);
  95   1        //OLED_SCL = 1;
  96   1        //delay_us(50000);
  97   1      /*  while(1)
  98   1        {
  99   1          if(!OLED_SDA)       //判断是否接收到OLED 应答信号
 100   1          {
 101   1            //GPIOB->CRH &= 0XFFF0FFFF; //设置PB12为通用推免输出模式
 102   1            //GPIOB->CRH |= 0x00030000;
 103   1            return;
 104   1          }
 105   1        }
 106   1      */
 107   1        OLED_SCLK_Set() ;
 108   1        OLED_SCLK_Clr();
 109   1      }
 110          
 111          
 112          
 113          /**
 114           * @brief IIC Write byte
 115           * 
 116           * @param IIC_Byte 
C51 COMPILER V9.60.0.0   OLED                                                              08/20/2022 23:17:42 PAGE 3   

 117           */
 118          static void Write_IIC_Byte(unsigned char IIC_Byte)
 119          {
 120   1        unsigned char i;
 121   1        unsigned char m,da;
 122   1        da=IIC_Byte;
 123   1        OLED_SCLK_Clr();
 124   1        for(i=0;i<8;i++)    
 125   1        {
 126   2            m=da;
 127   2          //  OLED_SCLK_Clr();
 128   2          m=m&0x80;
 129   2          if(m==0x80)
 130   2          {OLED_SDIN_Set();}
 131   2          else OLED_SDIN_Clr();
 132   2            da=da<<1;
 133   2          OLED_SCLK_Set();
 134   2          OLED_SCLK_Clr();
 135   2          }
 136   1      
 137   1      
 138   1      }
 139          
 140          
 141          
 142          
 143          /**
 144           * @brief IIC Write Command
 145           * 
 146           * @param IIC_Command 
 147           */
 148          static void Write_IIC_Command(unsigned char IIC_Command)
 149          {
 150   1         IIC_Start();
 151   1         Write_IIC_Byte(0x78);            //Slave address,SA0=0
 152   1        IIC_Wait_Ack(); 
 153   1         Write_IIC_Byte(0x00);      //write command
 154   1        IIC_Wait_Ack(); 
 155   1         Write_IIC_Byte(IIC_Command); 
 156   1        IIC_Wait_Ack(); 
 157   1         IIC_Stop();
 158   1      }
 159          
 160          
 161          
 162          
 163          /**
 164           * @brief IIC Write Data
 165           * 
 166           * @param IIC_Data 
 167           */
 168          static void Write_IIC_Data(unsigned char IIC_Data)
 169          {
 170   1         IIC_Start();
 171   1         Write_IIC_Byte(0x78);      //D/C#=0; R/W#=0
 172   1        IIC_Wait_Ack(); 
 173   1         Write_IIC_Byte(0x40);      //write data
 174   1        IIC_Wait_Ack(); 
 175   1         Write_IIC_Byte(IIC_Data);
 176   1        IIC_Wait_Ack(); 
 177   1         IIC_Stop();
 178   1      }
C51 COMPILER V9.60.0.0   OLED                                                              08/20/2022 23:17:42 PAGE 4   

 179          
 180          
 181          
 182          void OLED_WR_Byte(unsigned dat,unsigned cmd)
 183          {
 184   1        if(cmd){
 185   2      
 186   2            Write_IIC_Data(dat);
 187   2        }
 188   1        else {
 189   2            Write_IIC_Command(dat);
 190   2          
 191   2        }
 192   1      
 193   1      }
 194          
 195          
 196          
 197          /**
 198           * @brief fill_Picture
 199           * 
 200           * @param fill_Data 
 201           */
 202          void fill_picture(unsigned char fill_Data)
 203          {
 204   1        unsigned char m,n;
 205   1        for(m=0;m<8;m++)
 206   1        {
 207   2          OLED_WR_Byte(0xb0+m,0);   //page0-page1
 208   2          OLED_WR_Byte(0x00,0);   //low column start address
 209   2          OLED_WR_Byte(0x10,0);   //high column start address
 210   2          for(n=0;n<128;n++)
 211   2            {
 212   3              OLED_WR_Byte(fill_Data,1);
 213   3            }
 214   2        }
 215   1      }
 216          
 217          
 218          
 219          /**
 220           * @brief 延时 n个50ms
 221           * 
 222           * @param Del_50ms 
 223           */
 224          static void Delay_50ms(unsigned int Del_50ms)
 225          {
 226   1        unsigned int m;
 227   1        for(;Del_50ms>0;Del_50ms--)
 228   1          for(m=6245;m>0;m--);
 229   1      }
 230          
 231          
 232          
 233          
 234          static void Delay_1ms(unsigned int Del_1ms)
 235          {
 236   1        unsigned char j;
 237   1        while(Del_1ms--)
 238   1        { 
 239   2          for(j=0;j<123;j++);
 240   2        }
C51 COMPILER V9.60.0.0   OLED                                                              08/20/2022 23:17:42 PAGE 5   

 241   1      }
 242          
 243          
 244          //坐标设置
 245          void OLED_Set_Pos(unsigned char x, unsigned char y) 
 246          {   OLED_WR_Byte(0xb0+y,OLED_CMD);
 247   1        OLED_WR_Byte(((x&0xf0)>>4)|0x10,OLED_CMD);
 248   1        OLED_WR_Byte((x&0x0f),OLED_CMD); 
 249   1      }   
 250          
 251          
 252          //开启OLED显示    
 253          void OLED_Display_On(void)
 254          {
 255   1        OLED_WR_Byte(0X8D,OLED_CMD);  //SET DCDC命令
 256   1        OLED_WR_Byte(0X14,OLED_CMD);  //DCDC ON
 257   1        OLED_WR_Byte(0XAF,OLED_CMD);  //DISPLAY ON
 258   1      }
 259          
 260          
 261          //关闭OLED显示     
 262          void OLED_Display_Off(void)
 263          {
 264   1        OLED_WR_Byte(0X8D,OLED_CMD);  //SET DCDC命令
 265   1        OLED_WR_Byte(0X10,OLED_CMD);  //DCDC OFF
 266   1        OLED_WR_Byte(0XAE,OLED_CMD);  //DISPLAY OFF
 267   1      } 
 268          
 269          
 270          //清屏函数,清完屏,整个屏幕是黑色的!和没点亮一样!!!    
 271          void OLED_Clear(void)  
 272          {  
 273   1        u8 i,n;       
 274   1        for(i=0;i<8;i++)  
 275   1        {  
 276   2          OLED_WR_Byte (0xb0+i,OLED_CMD);    //设置页地址（0~7）
 277   2          OLED_WR_Byte (0x00,OLED_CMD);      //设置显示位置—列低地址
 278   2          OLED_WR_Byte (0x10,OLED_CMD);      //设置显示位置—列高地址   
 279   2          for(n=0;n<128;n++)OLED_WR_Byte(0,OLED_DATA); 
 280   2        } //更新显示
 281   1      }
 282          
 283          
 284          void OLED_On(void)  
 285          {  
 286   1        u8 i,n;       
 287   1        for(i=0;i<8;i++)  
 288   1        {  
 289   2          OLED_WR_Byte (0xb0+i,OLED_CMD);    //设置页地址（0~7）
 290   2          OLED_WR_Byte (0x00,OLED_CMD);      //设置显示位置—列低地址
 291   2          OLED_WR_Byte (0x10,OLED_CMD);      //设置显示位置—列高地址   
 292   2          for(n=0;n<128;n++)OLED_WR_Byte(1,OLED_DATA); 
 293   2        } //更新显示
 294   1      }
 295          
 296          
 297          //在指定位置显示一个字符,包括部分字符
 298          //x:0~127
 299          //y:0~63
 300          //mode:0,反白显示;1,正常显示         
 301          //size:选择字体 16/12 
 302          void OLED_ShowChar(u8 x,u8 y,u8 chr,u8 Char_Size)
C51 COMPILER V9.60.0.0   OLED                                                              08/20/2022 23:17:42 PAGE 6   

 303          {       
 304   1          unsigned char c=0,i=0;  
 305   1          c=chr-' ';//得到偏移后的值      
 306   1          if(x>Max_Column-1){
 307   2            x=0;y=y+2;
 308   2          }
 309   1          if(Char_Size ==16){
 310   2      
 311   2            OLED_Set_Pos(x,y);  
 312   2            for(i=0;i<8;i++)
 313   2            OLED_WR_Byte(F8X16[c*16+i],OLED_DATA);
 314   2            OLED_Set_Pos(x,y+1);
 315   2            for(i=0;i<8;i++)
 316   2            OLED_WR_Byte(F8X16[c*16+i+8],OLED_DATA);
 317   2      
 318   2          }else{  
 319   2          
 320   2            OLED_Set_Pos(x,y);
 321   2            for(i=0;i<6;i++){
 322   3      
 323   3              OLED_WR_Byte(F6x8[c][i],OLED_DATA);
 324   3            }
 325   2              
 326   2          }
 327   1      }
 328          
 329          
 330          
 331          //m^n函数
 332          u32 oled_pow(u8 m,u8 n)
 333          {
 334   1        u32 result=1;  
 335   1        while(n--)result*=m;    
 336   1        return result;
 337   1      }   
 338          
 339          
 340          
 341          //显示2个数字
 342          //x,y :起点坐标  
 343          //len :数字的位数
 344          //size:字体大小
 345          //mode:模式 0,填充模式;1,叠加模式
 346          //num:数值(0~4294967295);       
 347          void OLED_ShowNum(u8 x,u8 y,u32 num,u8 len,u8 size2)
 348          {           
 349   1        u8 t,temp;
 350   1        u8 enshow=0;               
 351   1        for(t=0;t<len;t++)
 352   1        {
 353   2          temp=(num/oled_pow(10,len-t-1))%10;
 354   2          if(enshow==0&&t<(len-1))
 355   2          {
 356   3            if(temp==0)
 357   3            {
 358   4              OLED_ShowChar(x+(size2/2)*t,y,' ',size2);
 359   4              continue;
 360   4            }else enshow=1; 
 361   3             
 362   3          }
 363   2          OLED_ShowChar(x+(size2/2)*t,y,temp+'0',size2); 
 364   2        }
C51 COMPILER V9.60.0.0   OLED                                                              08/20/2022 23:17:42 PAGE 7   

 365   1      } 
 366          
 367          
 368          //显示一个字符号串
 369          void OLED_ShowString(u8 x,u8 y,u8 *chr,u8 Char_Size)
 370          {
 371   1        unsigned char j=0;
 372   1        while (chr[j]!='\0')
 373   1        {   
 374   2          OLED_ShowChar(x,y,chr[j],Char_Size);
 375   2          x+=8;
 376   2          if(x>120){
 377   3            x=0;y+=2;
 378   3          }
 379   2          j++;
 380   2        }
 381   1      }
 382          
 383          
 384          //显示汉字
 385          void OLED_ShowCHinese(u8 x,u8 y,u8 no)
 386          {               
 387   1        u8 t,adder=0;
 388   1        OLED_Set_Pos(x,y);  
 389   1          for(t=0;t<16;t++){
 390   2      
 391   2          OLED_WR_Byte(Hzk[2*no][t],OLED_DATA);
 392   2          adder+=1;
 393   2          } 
 394   1      
 395   1        OLED_Set_Pos(x,y+1);  
 396   1          for(t=0;t<16;t++){
 397   2      
 398   2          OLED_WR_Byte(Hzk[2*no+1][t],OLED_DATA);
 399   2          adder+=1;
 400   2          }         
 401   1      }
 402          
 403          
 404          /***********功能描述：显示显示BMP图片128×64起始点坐标(x,y),x的范围0～127，y为页的范围0～7****************
             -*/
 405          void OLED_DrawBMP(unsigned char x0, unsigned char y0,unsigned char x1, unsigned char y1,unsigned char BMP[
             -])
 406          {   
 407   1        unsigned int j=0;
 408   1        unsigned char x,y;
 409   1        
 410   1          if(y1%8==0) y=y1/8;      
 411   1          else y=y1/8+1;
 412   1        for(y=y0;y<y1;y++)
 413   1        {
 414   2          OLED_Set_Pos(x0,y);
 415   2            for(x=x0;x<x1;x++){
 416   3      
 417   3              OLED_WR_Byte(BMP[j++],OLED_DATA);       
 418   3            }
 419   2        }
 420   1      } 
 421          
 422          
 423          
 424          //初始化SSD1306             
C51 COMPILER V9.60.0.0   OLED                                                              08/20/2022 23:17:42 PAGE 8   

 425          void OLED_Init(void)
 426          {   
 427   1       
 428   1        OLED_WR_Byte(0xAE,OLED_CMD);//--display off
 429   1        OLED_WR_Byte(0x00,OLED_CMD);//---set low column address
 430   1        OLED_WR_Byte(0x10,OLED_CMD);//---set high column address
 431   1        OLED_WR_Byte(0x40,OLED_CMD);//--set start line address  
 432   1        OLED_WR_Byte(0xB0,OLED_CMD);//--set page address
 433   1        OLED_WR_Byte(0x81,OLED_CMD); // contract control
 434   1        OLED_WR_Byte(0xFF,OLED_CMD);//--128   
 435   1        OLED_WR_Byte(0xA1,OLED_CMD);//set segment remap 
 436   1        OLED_WR_Byte(0xA6,OLED_CMD);//--normal / reverse
 437   1        OLED_WR_Byte(0xA8,OLED_CMD);//--set multiplex ratio(1 to 64)
 438   1        OLED_WR_Byte(0x3F,OLED_CMD);//--1/32 duty
 439   1        OLED_WR_Byte(0xC8,OLED_CMD);//Com scan direction
 440   1        OLED_WR_Byte(0xD3,OLED_CMD);//-set display offset
 441   1        OLED_WR_Byte(0x00,OLED_CMD);//
 442   1        
 443   1        OLED_WR_Byte(0xD5,OLED_CMD);//set osc division
 444   1        OLED_WR_Byte(0x80,OLED_CMD);//
 445   1        
 446   1        OLED_WR_Byte(0xD8,OLED_CMD);//set area color mode off
 447   1        OLED_WR_Byte(0x05,OLED_CMD);//
 448   1        
 449   1        OLED_WR_Byte(0xD9,OLED_CMD);//Set Pre-Charge Period
 450   1        OLED_WR_Byte(0xF1,OLED_CMD);//
 451   1        
 452   1        OLED_WR_Byte(0xDA,OLED_CMD);//set com pin configuartion
 453   1        OLED_WR_Byte(0x12,OLED_CMD);//
 454   1        
 455   1        OLED_WR_Byte(0xDB,OLED_CMD);//set Vcomh
 456   1        OLED_WR_Byte(0x30,OLED_CMD);//
 457   1        
 458   1        OLED_WR_Byte(0x8D,OLED_CMD);//set charge pump enable
 459   1        OLED_WR_Byte(0x14,OLED_CMD);//
 460   1        
 461   1        OLED_WR_Byte(0xAF,OLED_CMD);//--turn on oled panel
 462   1      }  
 463          
 464          
 465          
 466          
 467          
 468          
 469          
 470          
 471          
 472          
 473          
 474          
 475          
 476          
 477          
 478          
 479          
 480          
 481          
 482          
 483          
 484          
 485          
 486          
C51 COMPILER V9.60.0.0   OLED                                                              08/20/2022 23:17:42 PAGE 9   

 487          
 488          
 489          
 490          
 491          


MODULE INFORMATION:   STATIC OVERLAYABLE
   CODE SIZE        =   1367    ----
   CONSTANT SIZE    =   2520    ----
   XDATA SIZE       =   ----    ----
   PDATA SIZE       =   ----    ----
   DATA SIZE        =   ----      41
   IDATA SIZE       =   ----    ----
   BIT SIZE         =   ----    ----
   EDATA SIZE       =   ----    ----
   HDATA SIZE       =   ----    ----
   XDATA CONST SIZE =   ----    ----
   FAR CONST SIZE   =   ----    ----
END OF MODULE INFORMATION.


C51 COMPILATION COMPLETE.  0 WARNING(S),  0 ERROR(S)
